:1000000045C0000053C0000051C000004FC00000B8
:100010004DC000004BC0000049C0000047C00000B8
:100020003CC1000043C0000041C000003FC00000D0
:100030003DC000003BC0000039C0000037C00000D8
:1000400035C0000033C0000031C000002FC00000E8
:100050002DC000002BC0000029C0000027C00000F8
:1000600025C0000023C0000021C000001FC0000008
:100070001DC000001BC0000019C0000017C0000018
:1000800015C0000013C0000011C0000011241FBEE5
:10009000CFEFD0E1DEBFCDBF21E0A0E0B1E001C0F5
:1000A0001D92AF30B207E1F761D18BC1A9CF87E0D4
:1000B00087BB81E58DB9C09A8FE39CE90197F1F781
:1000C00000C00000089594EA90937400E4E7F0E023
:1000D00090819923ECF78093730084E880937400F7
:1000E000E4E7F0E080818823ECF76093730084E814
:1000F00080937400E4E7F0E080818823ECF750936C
:10010000730084E880937400E4E7F0E08081882342
:10011000ECF74093730084E880937400E4E7F0E028
:1001200080818823ECF784E980937400089540E08F
:1001300050E061E08FE0C7DF40E050E062E08FE038
:10014000C2CF08958FB9779BFECF8FB190E008950D
:1001500080E290E0F7DF83E390E0F4DF1E9A0895F9
:100160002FEF8BED95E0215080409040E1F700C0EB
:10017000000080E290E0E6DF87EC90E00197F1F785
:1001800000C0000082E390E0DDDF8FE697E1019799
:10019000F1F700C00000DCCF0895CF92DF92EF921C
:1001A000FF92CF93DF9381E690E0CCDF8FEF90E07A
:1001B000C9DF8FB180930E0180910E01873731F432
:1001C00081E090E090930101809300018FEF90E037
:1001D000B9DF8FB180930D018FEF90E0B3DF8FB166
:1001E00080930C018FEF90E0ADDF8FB180930B0116
:1001F0008FEF90E0A7DF8FB180930A0180910A0111
:1002000080910B0180910C01C0900D0180910E0135
:10021000D12CDC2CCC24C80ED11CEE24D7FCE094CD
:10022000FE2CCDE1D0E08FEF90E08CDF219720977E
:10023000D1F7C701B601DF91CF91FF90EF90DF902A
:10024000CF900895AADF6093060170930701809311
:100250000801909309018091060190910701A091F6
:100260000801B0910901892F9A2FAB2FBB2799273D
:1002700090930501809304018091060190910701FC
:10028000A0910801B09109018B2F9927AA27BB27BC
:10029000909303018093020108951F920F920FB66D
:1002A0000F9211240BB60F922F933F934F935F93AE
:1002B0006F937F938F939F93AF93BF93EF93FF932E
:1002C000E2E6F0E0808181608083BCDF8091000104
:1002D00090910101892B71F4409104015091050125
:1002E00061E08FE0F0DE409102015091030162E095
:1002F0008FE0E9DEE2E6F0E080818E7F8083FF918F
:10030000EF91BF91AF919F918F917F916F915F918D
:100310004F913F912F910F900BBE0F900FBE0F90FA
:100320001F9018951F93CF93DF93182FEB0180EA4E
:1003300090E008DF812F90E005DFCE018F6F02DFB4
:100340008FEF90E0FFDECDE1D0E08FEF90E0FADEBE
:1003500021972097D1F780E290E0F4DE82E390E0ED
:10036000F1DE1E9ADF91CF911F9108958FEF809358
:10037000610092E0909362009FE792B91F9A84BB5C
:1003800015BA80E889BF80EC8ABF789490DEE8DEF9
:10039000CEDEC2E6D0E0809100019091010101978C
:1003A000D1F788818460888365B370E08FEFBADF0E
:1003B0001092010110920001CBDE88818B7F88832F
:0603C000EACFF894FFCF24
:00000001FF
