S00C0000746573742E7372656358
S113000045C0000053C0000051C000004FC00000B4
S11300104DC000004BC0000049C0000047C00000B4
S113002045C0000043C0000041C000003FC00000C4
S11300303DC000003BC0000039C0000037C00000D4
S113004035C0000033C0000031C000002FC00000E4
S11300502DC000002BC0000029C0000027C00000F4
S113006025C0000023C0000021C000001FC0000004
S11300701DC000001BC0000019C0000017C0000014
S113008015C0000013C0000011C0000011241FBEE1
S1130090CFEFD0E1DEBFCDBF21E0A0E0B1E001C0F1
S11300A01D92AF30B207E1F798D0B3C0A9CF8FB992
S11300B0779BFECF8FB190E0089580E290E0F7DF68
S11300C083E390E0F4CF08958FE295E70197F1F789
S11300D000C0000086E087BB81E58DB980E290E036
S11300E0E6DF82E390E0E3DF86E791E00197F1F752
S11300F000C00000E2CF089581E690E0D8DF8FEFE2
S113010090E0D5DF8FB180930E01873731F481E021
S113011090E090930101809300018FEF90E0C7DF9E
S11301208FB180930D018FEF90E0C1DF8FB1809389
S11301300C018FEF90E0BBDF8FB180930B018FEF49
S113014090E0B5DF8FB180930A0160910D0170E0FA
S1130150762F662780910E01680F711D882777FD21
S11301608095982F08950F931F93C6DF609306011F
S1130170709307018093080190930901072F182FAA
S1130180292F332711271093050100930401892F88
S11301909927AA27BB2790930301809302011F91FB
S11301A00F9108951F93CF93DF93182FEB0180EAEB
S11301B090E07DDF812F90E07ADFCE018F6F77DFD3
S11301C08FEF90E074DF80E290E071DF82E390E0F3
S11301D06EDFDF91CF911F9108958FEF80936100BF
S11301E081E08093620070DFBEDF80910001909116
S11301F001010197C9F760E070E08FEFD3DF65B3C9
S113020070E08FE0CFDF109201011092000155DF02
S1090210EBCFF894FFCFD0
S9030000FC
