S00C0000746573742E7372656358
S113000045C0000053C0000051C000004FC00000B4
S11300104DC000004BC0000049C0000047C00000B4
S1130020E2C0000043C0000041C000003FC0000027
S11300303DC000003BC0000039C0000037C00000D4
S113004035C0000033C0000031C000002FC00000E4
S11300502DC000002BC0000029C0000027C00000F4
S113006025C0000023C0000021C000001FC0000004
S11300701DC000001BC0000019C0000017C0000014
S113008015C0000013C0000011C0000011241FBEE1
S1130090CFEFD0E1DEBFCDBF21E0A0E0B1E001C0F1
S11300A01D92AF30B207E1F7F9D01EC1A9CF87E0A6
S11300B087BB81E58DB9C09A83EC99E00197F1F78C
S11300C000C0000008958FB9779BFECF8FB190E0F8
S11300D0089580E290E0F7DF83E390E0F4DF1E9A76
S11300E008958FE295E70197F1F700C0000080E2E0
S11300F090E0E9DF90E19A95F1F700C082E390E0A7
S1130100E2DF86E791E00197F1F700C00000E1CF5C
S1130110089581E690E0D7DF8FEF90E0D4DF8FB1D0
S113012080930E0180910E01873731F481E090E0D5
S113013090930101809300018FEF90E0C4DF8FB1B1
S113014080930D018FEF90E0BEDF8FB180930C019F
S11301508FEF90E0B8DF8FB180930B018FEF90E0C9
S1130160B2DF8FB180930A0180910A0180910B0163
S113017080910C0160910D0180910E0170E0762F49
S11301806627680F711D882777FD8095982F08953D
S1130190C0DF609306017093070180930801909378
S11301A009018091060190910701A0910801B09185
S11301B00901892F9A2FAB2FBB279927909305010B
S11301C0809304018091060190910701A091080198
S11301D0B09109018B2F9927AA27BB27909303017C
S11301E08093020108951F920F920FB60F9211246B
S11301F00BB60F922F933F934F935F936F937F931D
S11302008F939F93AF93BF93EF93FF93E2E6F0E056
S1130210808181608083BCDF809100019091010125
S1130220892B41F480910401909105018091020190
S113023090910301E2E6F0E080818E7F8083FF915C
S1130240EF91BF91AF919F918F917F916F915F914A
S11302504F913F912F910F900BBE0F900FBE0F90B7
S11302601F9018951F93CF93DF93182FEB0180EA0B
S113027090E029DF812F90E026DFCE018F6F23DF0E
S11302808FEF90E020DF80E290E01DDF82E390E0DA
S11302901ADF1E9ADF91CF911F9108958FEF8093FB
S11302A0610092E0909362009FE792B91F9A84BB29
S11302B015BA80E889BF80EC8ABF7894F8DE11DF34
S11302C080910001909101010197D1F760E070E005
S11302D08FEFC8DF65B370E08FE0C4DF10920101D7
S10F02E010920001F6DEECCFF894FFCF82
S9030000FC
