:1000000045C0000060C000005EC00000A7C0000046
:10001000D6C0000058C0000056C0000054C0000008
:1000200052C0000050C000004EC000004CC0000094
:100030004AC0000048C0000046C0000044C00000A4
:1000400043C0000040C000003EC000003CC00000B3
:100050003AC0000038C0000036C0000034C00000C4
:1000600032C0000030C000002EC000002CC00000D4
:100070002AC0000028C0000026C0000024C00000E4
:1000800022C0000020C000001EC0000011241FBEBE
:10009000CFEFD0E1DEBFCDBF11E0A0E0B1E0E0EDF9
:1000A000FCE000E00BBF02C007900D92AA30B10740
:1000B000D9F721E0AAE0B1E001C01D92A431B20756
:1000C000E1F7AED003C69CCF1F920F9200905F0065
:1000D0000F92112400905B000F922F933F938F9308
:1000E0009F93EF93FF93CF93DF93CDB7DEB78091CC
:1000F0000A0190910B01019690930B0180930A01E4
:1001000080910A0190910B018C329140B1F488E307
:1001100090E028E330E0F90120812F7EFC0120836C
:1001200088E390E028E330E0F90120812F7DFC0195
:10013000208310920B0110920A01DF91CF91FF9161
:10014000EF919F918F913F912F910F9000925B00C3
:100150000F9000925F000F901F9018951F920F92C2
:1001600000905F000F92112400905B000F922F937C
:100170003F934F935F936F937F938F939F93AF932F
:10018000BF93EF93FF93CF93DF93CDB7DEB715D235
:10019000DF91CF91FF91EF91BF91AF919F918F919F
:1001A0007F916F915F914F913F912F910F900092AE
:1001B0005B000F9000925F000F901F9018951F92A8
:1001C0000F9200905F000F92112400905B000F923D
:1001D0002F933F934F935F936F937F938F939F934F
:1001E000AF93BF93EF93FF93CF93DF93CDB7DEB77A
:1001F00048D1DF91CF91FF91EF91BF91AF919F9146
:100200008F917F916F915F914F913F912F910F90BF
:1002100000925B000F9000925F000F901F90189566
:10022000CF93DF93CDB7DEB72E970FB6F894DEBF2E
:100230000FBECDBF81E690E02FEFFC01208382E668
:1002400090E021E0FC01208384E390E02FEFFC01AB
:10025000208385E390E0FC0110828AE390E0FC01BA
:1002600010828BE390E0FC01108287E390E02FEF97
:10027000FC01208388E390E0FC01108283E590E09C
:1002800023E530E0F90120812560FC01208389E528
:1002900090E02CE0FC0120838AE690E020EAFC015B
:1002A000208387E590E027E530E0F9012081216097
:1002B000FC01208378941DD266E082E026D280E0A3
:1002C00091E072D285E091E059D280E790E020E79A
:1002D00030E0F90120812466FC01208380910F0128
:1002E00040EF50E0682F8BE090E06DD080E090E030
:1002F000AAEFB3E489839A83AB83BC8320E030E028
:100300004AE755E469817A818B819C8154D4DC0170
:10031000CB018D839E83AF83B88720E030E040E837
:100320005FE36D817E818F819885C4D388232CF40F
:1003300081E090E09A8789873BC020E03FEF4FE75C
:1003400057E46D817E818F81988531D418163CF5F4
:1003500020E030E040E251E469817A818B819C8128
:100360002AD4DC01CB01BC01CD01A8D3DC01CB0137
:100370009A8789870FC080E991E09C878B878B855E
:100380009C850197F1F79C878B8789859A850197D2
:100390009A87898789859A85892B69F713C06D812A
:1003A0007E818F8198858AD3DC01CB019A878987EA
:1003B00089859A859E878D878D859E850197F1F722
:1003C0009E878D878BCFCF93DF9300D000D01F9275
:1003D000CDB7DEB79A8389836B835D834C83898134
:1003E0009A81880F991F9A83898384E790E024E695
:1003F000FC012083000084E790E0FC0180818823D9
:10040000D4F783E790E02981FC01208384E790E022
:1004100024E8FC012083000084E790E0FC01808157
:100420008823D4F783E790E02C81FC01208384E7C4
:1004300090E024E8FC012083000084E790E0FC01C8
:1004400080818823D4F783E790E02BEBFC012083A5
:1004500084E790E024E8FC012083000084E790E03A
:10046000FC0180818823D4F784E790E024E9FC0133
:1004700020830F900F900F900F900F90DF91CF91EE
:100480000895CF93DF93CDB7DEB72E970FB6F894CC
:10049000DEBF0FBECDBF09C082E690E022E630E0AD
:1004A000F90120812860FC01208389E390E0FC01B0
:1004B0008081882F90E081709927892B69F380E0F3
:1004C00090E0AAEFB3E489839A83AB83BC8320E0F6
:1004D00030E04AE755E469817A818B819C816BD356
:1004E000DC01CB018D839E83AF83B88720E030E0B1
:1004F00040E85FE36D817E818F819885DBD2882320
:100500002CF481E090E09A8789873BC020E03FEFA0
:100510004FE757E46D817E818F81988548D3181607
:100520003CF520E030E040E251E469817A818B8142
:100530009C8141D3DC01CB01BC01CD01BFD2DC01E8
:10054000CB019A8789870FC080E991E09C878B87D0
:100550008B859C850197F1F79C878B8789859A8588
:1005600001979A87898789859A85892B69F713C0AE
:100570006D817E818F819885A1D2DC01CB019A8724
:10058000898789859A859E878D878D859E85019728
:10059000F1F79E878D8782E690E022E630E0F90150
:1005A0002081277FFC0120832E960FB6F894DEBFB2
:1005B0000FBECDBFDF91CF910895CF93DF93CDB71D
:1005C000DEB72E970FB6F894DEBF0FBECDBF09C0C1
:1005D00082E690E022E630E0F90120812460FC010F
:1005E000208389E390E0FC018081882F90E0827075
:1005F0009927892B69F380E090E0AAEFB3E489831F
:100600009A83AB83BC8320E030E04AE755E46981FC
:100610007A818B819C81CFD2DC01CB018D839E833B
:10062000AF83B88720E030E040E85FE36D817E81F2
:100630008F8198853FD288232CF481E090E09A87BF
:1006400089873BC020E03FEF4FE757E46D817E8113
:100650008F819885ACD218163CF520E030E040E25E
:1006600051E469817A818B819C81A5D2DC01CB0127
:10067000BC01CD0123D2DC01CB019A8789870FC051
:1006800080E991E09C878B878B859C850197F1F7AA
:100690009C878B8789859A8501979A878987898521
:1006A0009A85892B69F713C06D817E818F8198852A
:1006B00005D2DC01CB019A87898789859A859E8737
:1006C0008D878D859E850197F1F79E878D8782E6C0
:1006D00090E022E630E0F90120812B7FFC012083AD
:1006E0002E960FB6F894DEBF0FBECDBFDF91CF912F
:1006F0000895CF93DF93CDB7DEB71CD180E04ED104
:1007000081E06CD1DF91CF910895CF93DF9300D03A
:10071000CDB7DEB789836A838A81809313016981AB
:1007200085E0D5D060E081E1D2D080911301682FBF
:1007300082E1CDD060E083E1CAD060E084E1C7D03F
:1007400060E085E1C4D060E086E1C1D066E086E08B
:10075000BED068E080E0BBD063E081E0B8D063E069
:1007600082E0B5D06FE484E0B2D060E08CE1AFD03D
:1007700033D00F900F90DF91CF910895CF93DF93F7
:1007800000D0CDB7DEB79A83898380E007D1898115
:100790009A8145E0BC018BE0B0D081E0FFD00F90A2
:1007A0000F90DF91CF910895CF93DF9300D0CDB715
:1007B000DEB79A83898389819A8145E0BC018AE00A
:1007C0009CD089819A8145E0BC0180E196D00F9050
:1007D0000F90DF91CF910895CF93DF93CDB7DEB720
:1007E00080E0FCD082EE0FD081E0F8D060E787E0B7
:1007F0006ED080E0D3D06BE080E069D081E0CED0D5
:10080000DF91CF910895CF93DF9300D01F92CDB7A2
:10081000DEB78B8319821A8280E000D119822AC048
:100820008B81882F90E02981222F30E047E050E033
:10083000BA01621B730B9B0102C0959587952A959F
:10084000E2F781709927892B19F081E007D102C066
:1008500080E004D181E0E2D08A81880F8A831ED1B2
:10086000882319F08A8181608A8380E0D7D08981CA
:100870008F5F89838981883098F28A810F900F90E9
:100880000F90DF91CF910895CF93DF9300D000D0E8
:10089000CDB7DEB79B838A836C8319820DC08981B3
:1008A000882F90E02A813B81820F931FFC01808179
:1008B000AADF89818F5F898399818C81981778F36A
:1008C0000F900F900F900F90DF91CF910895CF93DD
:1008D000DF9300D0CDB7DEB789836A8380E07ED016
:1008E00089818F7180628FDF8A818DDF81E076D090
:1008F0000F900F90DF91CF910895CF93DF9300D0A9
:1009000000D0CDB7DEB789837B836A834C8380E0D8
:1009100065D089818F71806276DF8A819B816C814D
:10092000B3DF81E05BD00F900F900F900F90DF91BD
:10093000CF910895CF93DF93CDB7DEB782E290E0F9
:1009400022E230E0F90120812064FC01208387E36A
:1009500090E027E330E0F90120812160FC01208351
:1009600087E390E027E330E0F90120812260FC0179
:10097000208387E390E027E330E0F90120812460C1
:10098000FC01208387E390E027E330E0F901208138
:10099000277FFC012083DF91CF910895CF93DF93D0
:1009A0001F92CDB7DEB789838981882351F083E216
:1009B00090E023E230E0F90120812064FC012083F3
:1009C00009C083E290E023E230E0F90120812F7B2F
:1009D000FC0120830F90DF91CF910895CF93DF9397
:1009E0001F92CDB7DEB789838981882351F088E3D0
:1009F00090E028E330E0F90120812160FC012083B0
:100A000009C088E390E028E330E0F90120812E7FDF
:100A1000FC0120830F90DF91CF910895CF93DF9356
:100A20001F92CDB7DEB789838981882351F088E38F
:100A300090E028E330E0F90120812260FC0120836E
:100A400009C088E390E028E330E0F90120812D7FA0
:100A5000FC0120830F90DF91CF910895CF93DF9316
:100A60001F92CDB7DEB789838981882351F088E34F
:100A700090E028E330E0F90120812460FC0120832C
:100A800009C088E390E028E330E0F90120812B7F62
:100A9000FC0120830F90DF91CF910895CF93DF93D6
:100AA000CDB7DEB786E390E0FC0180818870DF91EE
:100AB000CF9108952FD008F481E0089557D088F0A1
:100AC0009F5790F0B92F9927B751A0F0D1F0660F3A
:100AD000771F881F991F1AF0BA95C9F712C0B13055
:100AE00081F05ED0B1E008955BC0672F782F882732
:100AF000B85F39F0B93FCCF3869577956795B39594
:100B0000D9F73EF490958095709561957F4F8F4F02
:100B10009F4F0895990F0008550FAA0BE0E8FEEFCC
:100B200016161706E807F907C0F012161306E407B1
:100B3000F50798F0621B730B840B950B39F40A26AA
:100B400061F0232B242B252B21F408950A2609F488
:100B5000A140A6958FEF811D811D089557FD9058E6
:100B6000440F551F59F05F3F71F04795880F97FB71
:100B7000991F61F09F3F79F087950895121613062B
:100B80001406551FF2CF4695F1DF08C0161617065A
:100B90001806991FF1CF869571056105089408958F
:100BA000E894BB2766277727CB0197F90895B2DF32
:100BB00008F48FEF08950BD078C069D028F06ED07C
:100BC00018F0952309F05AC05FC01124EACFC6DFA0
:100BD000A0F3959FD1F3950F50E0551F629FF00150
:100BE000729FBB27F00DB11D639FAA27F00DB11DA9
:100BF000AA1F649F6627B00DA11D661F829F222732
:100C0000B00DA11D621F739FB00DA11D621F839FB8
:100C1000A00D611D221F749F3327A00D611D231F8E
:100C2000849F600D211D822F762F6A2F11249F57DC
:100C300050408AF0E1F088234AF0EE0FFF1FBB1FFF
:100C4000661F771F881F91505040A9F79E3F51059E
:100C500070F014C0A6CF5F3FECF3983EDCF38695AE
:100C600077956795B795F795E7959F5FC1F7FE2B49
:100C7000880F911D9695879597F9089597F99F6725
:100C800080E870E060E008959FEF80EC0895002414
:100C90000A941616170618060906089500240A94E1
:100CA00012161306140605060895092E0394000C67
:100CB00011F4882352F0BB0F40F4BF2B11F460FFF6
:100CC00004C06F5F7F4F8F4F9F4F0895F894FFCF01
:0A0CD000D7D7D7D7D7E7E7E7E7E764
:00000001FF
