S016000046756E6B656D706661656E6765722E7372656360
S113000045C0000060C000005EC00000AFC1000039
S11300106EC1000058C0000056C0000054C000006B
S113002052C0000050C000004EC000004CC0000090
S11300304AC0000048C0000046C0000044C00000A0
S113004043C0000040C000003EC000003CC00000AF
S11300503AC0000038C0000036C0000034C00000C0
S113006032C0000030C000002EC000002CC00000D0
S11300702AC0000028C0000026C0000024C00000E0
S113008022C0000020C000001EC0000011241FBEBA
S1130090CFEFD0E1DEBFCDBF11E0A0E0B1E0E6EEEE
S11300A0F6E000E00BBF02C007900D92AA30B10742
S11300B0D9F721E0AAE0B1E001C01D92A631B20750
S11300C0E1F7AAD00EC39CCF1F920F920FB60F92E6
S11300D011242F938F939F9380910A0190910B0188
S11300E0019690930B0180930A0180910A019091EB
S11300F00B018C32914031F4C498C59810920B01D5
S113010010920A019F918F912F910F900FBE0F9023
S11301101F9018959C01220F331F84E6809374006E
S1130120E4E7F0E090819923ECF72093730084E8EE
S113013080937400E4E7F0E080818823ECF7609317
S1130140730084E880937400E4E7F0E080818823FE
S1130150ECF74093730084E880937400E4E7F0E0E4
S113016080818823ECF784E9809374000895EFE09C
S1130170F1E087E78083118285B382831382CF0104
S11301800DD257D18111FDCF5BD180930E01811126
S113019012C0E2E6F0E08081826080832FE788E38A
S11301A091E0215080409040E1F700C00000808140
S11301B08D6F808313C0813089F4E2E6F0E08081A2
S11301C0886080832FE788E391E02150804090404D
S11301D0E1F700C000008081876F80839BD18FE3AB
S11301E09CE90197F1F700C0000008951AD2882312
S11301F051F08FE091E07AD180910F01873731F08F
S1130200882339F0089583E090E0089581E090E038
S1130210089582E090E008958FEF8093610091E06B
S11302209093620084BB15BA1ABA1BBA87BB18BA7A
S113023083B7856083BF8CE089BF80EA80936A00BE
S113024087B7816087BF7894B8D066E082E073D1C5
S113025085E091E017D280E091E006D2E0E7F0E09B
S1130260808184668083CFE0D1E002E610E0BEDFC7
S11302708130910519F0029719F0F9CF78DFF7CFA3
S1130280498150E065E58BE090E044DF4A8150E02D
S113029066E68BE090E03EDF8FE39CE90197F1F79F
S11302A000C000008A81F80180838B8190E09093E4
S11302B00D0180930C0185B38F6085BBD8CFC8999D
S11302C007C0E2E6F0E0808188608083C89BFBCFB2
S11302D02FEF89E698E1215080409040E1F700C07B
S11302E00000E2E6F0E08081877F808308951F921A
S11302F00F920FB60F9211240BB60F922F933F93C8
S11303004F935F936F937F938F939F93AF93BF9319
S1130310EF93FF93D4DFFF91EF91BF91AF919F9142
S11303208F917F916F915F914F913F912F910F909A
S11303300BBE0F900FBE0F901F901895C99907C060
S1130340E2E6F0E0808184608083C99BFBCF2FEFDD
S113035089E698E1215080409040E1F700C0000018
S1130360E2E6F0E080818B7F808308951F920F92F4
S11303700FB60F9211240BB60F922F933F934F9306
S11303805F936F937F938F939F93AF93BF93EF93F9
S1130390FF93D4DFFF91EF91BF91AF919F918F9124
S11303A07F916F915F914F913F912F910F900BBE71
S11303B00F900FBE0F901F90189572D180E076D1E8
S11303C081E07AC10895EF92FF921F93CF93DF9358
S11303D0E82E80E077D1C7E0D0E010E0F12C97015F
S11303E00C2E02C0359527950A94E2F720FF03C02E
S11303F081E06ED102C080E06BD181E063D1110F46
S11304006DD18111116080E05DD1219740F7812F7A
S1130410DF91CF911F91FF90EF900895CF9380E0EB
S11304204BD18FEFD0DFC82F81E046D18C2FCF91F5
S11304300895F4DF982F907381E009F080E0089527
S1130440EDDF85FD04C084FD04C08FEF089580E0D6
S1130450089581E00895EF92FF920F931F93CF9335
S1130460DF93442399F0EC01062F172F4150E42E1B
S1130470F12C2FEFE21AF20AE80EF91E8991A3DF9C
S1130480F80181938F01CE15DF05C1F7DF91CF917C
S11304901F910F91FF90EF9008950F931F93CF93A7
S11304A0DF93662369F0EC016150062F10E00F5FC3
S11304B01F4F080F191F899186DFC017D107D9F77D
S11304C0DF91CF911F910F910895CF93DF93C82FA0
S11304D0D62F80E0F1D08C2F8F71806274DF8D2F46
S11304E072DF81E0E9D0DF91CF910895CF93DF935C
S11304F0EC0180E0E1D081E666DF40911501BE01A8
S1130500CE01A9DF81E0D8D060E487E0DEDFDF91AF
S1130510CF91089580E0D0D082EE55DF81E0CCD039
S113052060E787E0D2DF80E0C1D06BE080E0CDDF20
S113053081E0BCC0089560931501682F85E0C5DF94
S113054060E081E1C2DF6091150182E1BEDF60E01D
S113055083E1BBDF60E084E1B8DF60E085E1B5DF23
S113056060E086E1B2DF66E086E0AFDF68E080E06D
S1130570ACDF63E081E0A9DF63E082E0A6DF6FE443
S113058084E0A3DF60E08CE1A0DFC4CF089560E7DE
S113059087E09BDF6AE080E098CF0895CF93DF93F4
S11305A0EC0180E083D0F3DF80E086D081EE0BDFC6
S11305B081E082D080E080D080EA05DF609115017F
S11305C0CE016BDF81E078D081E070D0DF91CF91F4
S11305D008950F931F93CF93DF93082FEB01142FEC
S11305E080E06AD0802F8F71EEDE412FBE01CE01F4
S11305F032DF81E061D0DF91CF911F910F91089597
S1130600CF93DF931F92CDB7DEB741E0BE016F5F9A
S11306107F4F87E1DEDF898181700F90DF91CF9179
S11306200895FCDE86FD06C0EBDF91E0882319F017
S113063090E001C091E0892F08950F931F93CF9309
S1130640DF93C82F8B01D42F80E036D08C2F8F718D
S11306508062B9DE6D2FC80120DF81E02DD0DF91EB
S1130660CF911F910F910895CF93DF93EC0180E018
S11306701DD045E0BE018BE0E0DF81E017D0DF91C3
S1130680CF910895CF93DF93EC0145E0BC018AE05C
S1130690D4DF45E0BE0180E1D0DFDF91CF91089542
S11306A0169AB89AB99ABA9ABB980895882311F001
S11306B01E9A08951E980895882311F0C09A0895EB
S11306C0C0980895882311F0C19A0895C198089597
S11306D0882311F0C29A0895C298089586B3887049
S10906E00895F894FFCF19
S10D06E6E7E7E7E7E7D7D7D7D7D750
S9030000FC
