S016000046756E6B656D706661656E6765722E7372656360
S113000045C0000060C000005EC0000083C0000066
S11300108BC0000058C0000056C0000054C000004F
S113002052C0000050C000004EC000004CC0000090
S11300304AC0000048C0000046C0000044C00000A0
S113004043C0000040C000003EC000003CC00000AF
S11300503AC0000038C0000036C0000034C00000C0
S113006032C0000030C000002EC000002CC00000D0
S11300702AC0000028C0000026C0000024C00000E0
S113008022C0000020C000001EC0000011241FBEBA
S1130090CFEFD0E1DEBFCDBF11E0A0E0B1E0E0EFF3
S11300A0F3E000E00BBF02C007900D92AA30B10745
S11300B0D9F721E0AAE0B1E001C01D92A431B20752
S11300C0E1F76AD093C19CCF1F920F920FB60F92A3
S11300D011242F938F939F9380910A0190910B0188
S11300E0019690930B0180930A0180910A019091EB
S11300F00B018C32914031F4C498C59810920B01D5
S113010010920A019F918F912F910F900FBE0F9023
S11301101F9018951F920F920FB60F9211240F90F3
S11301200FBE0F901F9018951F920F920FB60F924B
S113013011240F900FBE0F901F9018959C01220F51
S1130140331F84E680937400E4E7F0E09081992300
S1130150ECF72093730084E880937400E4E7F0E004
S113016080818823ECF74093730084E880937400C3
S1130170E4E7F0E080818823ECF78BEB8093730055
S113018084E880937400E4E7F0E080818823ECF74E
S113019084E98093740008958FEF8093610091E067
S11301A09093620084BB15BA1ABA1BBA87BB18BAFB
S11301B083B7856083BF8CE089BF80EA80936A003F
S11301C087B7816087BF789426D066E082E08ED0BE
S11301D085E091E0DCD080E091E0CBD0E0E7F0E096
S11301E0808184668083CDE0D1E040EF50E06A8175
S11301F08AE090E0A3DF40EF50E06A818BE090E07A
S11302009DDF2FEF81EE94E0215080409040E1F794
S113021000C00000EACFC9D080E0CDD081E0D1C0D9
S11302200895EF92FF921F93CF93DF93E82E80E01F
S1130230CED0C7E0D0E010E0F12C97010C2E02C024
S1130240359527950A94E2F720FF03C081E0C5D0D5
S113025002C080E0C2D081E0BAD0110FC4D08111B5
S1130260116080E0B4D0219740F7812FDF91CF91C6
S11302701F91FF90EF9008950F931F93CF93DF93F7
S1130280662369F0EC016150062F10E00F5F1F4FE9
S1130290080F191F8991C5DFC017D107D9F7DF915E
S11302A0CF911F910F910895CF93DF93C82FD62F2D
S11302B080E087D08C2F8F718062B3DF8D2FB1DF08
S11302C081E07FD0DF91CF91089580E07AD082EEF3
S11302D0A8DF81E076D060E787E0E6DF80E06BD0DE
S11302E06BE080E0E1DF81E066C008956093130174
S11302F0682F85E0D9DF60E081E1D6DF60911301EA
S113030082E1D2DF60E083E1CFDF60E084E1CCDF33
S113031060E085E1C9DF60E086E1C6DF66E086E093
S1130320C3DF68E080E0C0DF63E081E0BDDF63E05D
S113033082E0BADF6FE484E0B7DF60E08CE1B4DF31
S1130340C4CF08950F931F93CF93DF93C82F8B01CE
S1130350D42F80E036D08C2F8F71806262DF6D2FB6
S1130360C8018ADF81E02DD0DF91CF911F910F91D9
S11303700895CF93DF93EC0180E01DD045E0BE01EA
S11303808BE0E0DF81E017D0DF91CF910895CF9328
S1130390DF93EC0145E0BC018AE0D4DF45E0BE0117
S11303A080E1D0DFDF91CF910895169AB89AB99A77
S11303B0BA9ABB980895882311F01E9A08951E983E
S11303C00895882311F0C09A0895C0980895882349
S11303D011F0C19A0895C1980895882311F0C29A22
S11303E00895C298089586B388700895F894FFCF4D
S10D03F0E7E7E7E7E7D7D7D7D7D749
S9030000FC
