:1000000045C0000060C000005EC0000048C10000A4
:1000100007C1000058C0000056C0000054C00000D6
:1000200052C0000050C000004EC000004CC0000094
:100030004AC0000048C0000046C0000044C00000A4
:1000400042C0000040C000003EC000003CC00000B4
:100050003AC0000038C0000036C0000034C00000C4
:1000600032C0000030C000002EC000002CC00000D4
:100070002AC0000028C0000026C0000024C00000E4
:1000800022C0000020C000001EC0000011241FBEBE
:10009000CFEFD0E1DEBFCDBF11E0A0E0B1E0ECE0FA
:1000A000F6E000E00BBF02C007900D92AA30B10746
:1000B000D9F721E0AAE0B1E001C01D92A031B2075A
:1000C000E1F75AD0A1C29CCF87E780930B01109231
:1000D0000C0185B380930D0110920E018BE091E02D
:1000E000F0D143D18111FDCF47D180930A01811115
:1000F00012C0E2E6F0E08081826080832FE788E32F
:1001000091E0215080409040E1F700C000008081E4
:100110008D6F808313C0813089F4E2E6F0E0808146
:10012000886080832FE788E391E0215080409040F1
:10013000E1F700C000008081876F80837ED18FE36C
:100140009CE90197F1F700C000000895FDD18823D4
:1001500051F08BE091E05DD180910B01873731F058
:10016000882339F0089583E090E0089581E090E0DD
:10017000089582E090E008958FEF8093610091E010
:100180009093620084BB15BA1ABA1BBA8CE089BF7F
:1001900080EA80936A007894A9D064E082E05ED11E
:1001A00085E091E002D280E091E0F1D1CCE0D1E0B5
:1001B00002E610E0CBDF8130910519F0029719F0CB
:1001C000F9CF82DFF7CF88818A3AA1F7F8018081E1
:1001D00082608083FFEF24E38CE0F1502040804078
:1001E000E1F700C00000F80180818D7F8083E2CFBD
:1001F000C89907C0E2E6F0E0808188608083C89BF0
:10020000FBCF2FEF89E698E1215080409040E1F745
:1002100000C00000E2E6F0E08081877F80830895DF
:100220001F920F920FB60F9211240BB60F922F93BD
:100230003F934F935F936F937F938F939F93AF936E
:10024000BF93EF93FF93D4DFFF91EF91BF91AF91F5
:100250009F918F917F916F915F914F913F912F91DE
:100260000F900BBE0F900FBE0F901F901895C9995D
:1002700007C0E2E6F0E0808184608083C99BFBCF09
:100280002FEF89E698E1215080409040E1F700C0CF
:100290000000E2E6F0E080818B7F808308951F926A
:1002A0000F920FB60F9211240BB60F922F933F931C
:1002B0004F935F936F937F938F939F93AF93BF936E
:1002C000EF93FF93D4DFFF91EF91BF91AF919F9197
:1002D0008F917F916F915F914F913F912F910F90EF
:1002E0000BBE0F900FBE0F901F9018956CD180E041
:1002F00070D181E074C10895FF920F931F93CF9343
:10030000DF93082F80E071D1C7E0D0E0F12C10E03E
:1003100098010C2E02C0359527950A94E2F720FF2C
:1003200003C081E068D102C080E065D181E05DD189
:10033000FF0C67D1882319F08F2D8160F82E80E0A3
:1003400054D1219728F78F2DDF91CF911F910F91D5
:10035000FF900895CF9380E042D18FEFCDDFC82F7B
:1003600081E03DD18C2FCF910895F4DF982F9073C9
:1003700081E009F080E00895EDDF85FD04C084FF91
:1003800004C081E0089580E008958FEF0895EF9212
:10039000FF920F931F93CF93DF93E42E442369F0D2
:1003A000082F192FC62FD72FF12CF80181918F011B
:1003B000A3DF8993F394FE10F8CFDF91CF911F91C3
:1003C0000F91FF90EF9008950F931F93CF93DF93BA
:1003D000062F662341F0C82FD92F10E089918CDFBA
:1003E0001F5F1013FBCFDF91CF911F910F910895E5
:1003F000CF93DF93D82FC62F80E0F1D08D2F8F7150
:1004000080627ADF8C2F78DF81E0E9D0DF91CF91B5
:100410000895CF93DF93EC0180E0E1D081E66CDFBB
:1004200040910F01BE01CE01B2DF81E0D8D060E47F
:1004300087E0DEDFDF91CF91089580E0D0D082EEBB
:100440005BDF81E0CCD060E787E0D2DF80E0C1D025
:100450006BE080E0CDDF81E0BCC0089560930F01C8
:10046000682F85E0C5DF60E081E1C2DF60910F01A8
:1004700082E1BEDF60E083E1BBDF60E084E1B8DF02
:1004800060E085E1B5DF60E086E1B2DF66E086E04E
:10049000AFDF68E080E0ACDF63E081E0A9DF63E02C
:1004A00082E0A6DF6FE484E0A3DF60E08CE1A0DF00
:1004B000C4CF089560E787E09BDF6AE080E098CFD3
:1004C0000895CF93DF93EC0180E083D0F3DF80E0E9
:1004D00086D081EE11DF81E082D080E080D080EA9A
:1004E0000BDF60910F01CE016FDF81E078D081E0FA
:1004F00070D0DF91CF9108950F931F93CF93DF9327
:10050000082FEB01142F80E06AD0802F8F71F4DE6A
:10051000412FBE01CE013BDF81E061D0DF91CF9161
:100520001F910F910895CF93DF931F92CDB7DEB740
:1005300041E0BE016F5F7F4F87E1DEDF898181701F
:100540000F90DF91CF91089505DF86FD06C0EBDFA8
:1005500091E0882319F090E001C091E0892F08957F
:100560000F931F93CF93DF93082FEB01142F80E09D
:1005700036D0802F8F718062BFDE612FCE0124DFE5
:1005800081E02DD0DF91CF911F910F910895CF93EE
:10059000DF93EC0180E01DD045E0BE018BE0E0DFA1
:1005A00081E017D0DF91CF910895CF93DF93EC01D5
:1005B00045E0BC018AE0D4DF45E0BE0180E1D0DF48
:1005C000DF91CF910895169AB89AB99ABA9ABB98C2
:1005D0000895882311F01E9A08951E98089588237F
:1005E00011F0C09A0895C0980895882311F0C19A17
:1005F0000895C1980895882311F0C29A0895C29869
:0C060000089586B388700895F894FFCF29
:0A060C00E7E7E7E7E7D7D7D7D7D72E
:00000001FF
