:100000000C9434000C9451000C9451000C94510049
:100010000C9451000C9451000C9451000C9451001C
:100020000C9451000C9451000C9451000C9451000C
:100030000C9451000C9451000C9451000C945100FC
:100040000C9451000C9451000C9451000C945100EC
:100050000C9451000C9451000C9451000C945100DC
:100060000C9451000C94510011241FBECFEFD8E026
:10007000DEBFCDBF11E0A0E0B1E0E0E5F9E002C0F5
:1000800005900D92AE31B107D9F721E0AEE1B1E0B4
:1000900001C01D92AF31B207E1F70E9464000C94D9
:1000A000A6040C940000CF93DF93CDB7DEB78AEBA4
:1000B00090E026E1FC0120838CEB90E024E4FC013D
:1000C0002083DF91CF910895CF93DF93CDB7DEB733
:1000D0002D970FB6F894DEBF0FBECDBF0E94BC00B7
:1000E0000E94F70183E390E00E9432031A82198292
:1000F0001B8280E091E00E946F038DE090E00E94FF
:1001000055038AE090E00E9455030E94530089EB5A
:1001100090E0FC018081882F90E08038910589F083
:10012000803A9105F1F08036910509F024C08CEBFE
:1001300090E02CEB30E0F9012081206CFC01208361
:100140001AC08BEB90E0FC01808180931E018CEB48
:1001500090E02CEB30E0F90120812068FC01208345
:100160000AC08CEB90E02CEB30E0F9012081206894
:10017000FC0120830000CBCFCF93DF93CDB7DEB758
:100180006C970FB6F894DEBF0FBECDBF84E290E04F
:1001900024E230E0F90120812260FC01208387E223
:1001A00090E027E230E0F90120812760FC01208304
:1001B00080E890E020E830E0F90120812268FC012D
:1001C000208381E890E021E830E0F90120812A6174
:1001D000FC01208388E890E02FEF38E0FC013183B8
:1001E000208386E890E020E030E5FC013183208325
:1001F00088E290E028E230E0F90120812760FC01EC
:10020000208380E090E0A6E9B3E489839A83AB83FE
:10021000BC8320E030E04AEF54E469817A818B812D
:100220009C810E944304DC01CB018D839E83AF83BC
:10023000B88720E030E040E85FE36D817E818F8108
:1002400098850E949A0388232CF481E090E09A8795
:1002500089873FC020E03FEF4FE757E46D817E8103
:100260008F8198850E943F0418164CF520E030E0FD
:1002700040E251E469817A818B819C810E94430430
:10028000DC01CB01BC01CD010E949E03DC01CB014E
:100290009A8789870FC088EC90E09C878B878B8535
:1002A0009C850197F1F79C878B8789859A850197B3
:1002B0009A87898789859A85009769F714C06D8127
:1002C0007E818F8198850E949E03DC01CB019A87F5
:1002D000898789859A859E878D878D859E850197DB
:1002E000F1F79E878D8788E290E028E230E0F901FF
:1002F0002081287FFC01208380E090E0A6E9B3E420
:100300008F87988BA98BBA8B20E030E04AEF54E4BA
:100310006F85788989899A890E944304DC01CB0121
:100320008B8B9C8BAD8BBE8B20E030E040E85FE395
:100330006B897C898D899E890E949A0388232CF47D
:1003400081E090E0988F8F8B3FC020E03FEF4FE738
:1003500057E46B897C898D899E890E943F04181619
:100360004CF520E030E040E251E46F8578898989DE
:100370009A890E944304DC01CB01BC01CD010E949B
:100380009E03DC01CB01988F8F8B0FC088EC90E02F
:100390009A8F898F898D9A8D0197F1F79A8F898F1E
:1003A0008F89988D0197988F8F8B8F89988D009763
:1003B00069F714C06B897C898D899E890E949E0390
:1003C000DC01CB01988F8F8B8F89988D9C8F8B8FC1
:1003D0008B8D9C8D0197F1F79C8F8B8F6C960FB650
:1003E000F894DEBF0FBECDBFDF91CF910895CF93BC
:1003F000DF93CDB7DEB76C970FB6F894DEBF0FBEB4
:10040000CDBF84E290E024E230E0F9012081246055
:10041000FC01208387E290E027E230E0F9012081AF
:100420002760FC01208380E890E020E830E0F901BB
:1004300020812262FC01208381E890E021E830E005
:10044000F90120812A61FC0120838AE890E02FEFE6
:1004500038E0FC013183208386E890E020E030E53D
:10046000FC013183208388E290E028E230E0F9014A
:1004700020812760FC01208380E090E0A6E9B3E4BE
:1004800089839A83AB83BC8320E030E04AEF54E455
:1004900069817A818B819C810E944304DC01CB01BC
:1004A0008D839E83AF83B88720E030E040E85FE330
:1004B0006D817E818F8198850E949A0388232CF418
:1004C00081E090E09A8789873FC020E03FEF4FE7C7
:1004D00057E46D817E818F8198850E943F041816B4
:1004E0004CF520E030E040E251E469817A818B8173
:1004F0009C810E944304DC01CB01BC01CD010E9420
:100500009E03DC01CB019A8789870FC088EC90E0BD
:100510009C878B878B859C850197F1F79C878B87C0
:1005200089859A8501979A87898789859A85009711
:1005300069F714C06D817E818F8198850E949E032A
:10054000DC01CB019A87898789859A859E878D876B
:100550008D859E850197F1F79E878D8788E290E0D3
:1005600028E230E0F9012081287FFC01208380E02F
:1005700090E0A6E9B3E48F87988BA98BBA8B20E033
:1005800030E04AEF54E46F85788989899A890E941E
:100590004304DC01CB018B8B9C8BAD8BBE8B20E0AD
:1005A00030E040E85FE36B897C898D899E890E94F9
:1005B0009A0388232CF481E090E0988F8F8B3FC0C2
:1005C00020E03FEF4FE757E46B897C898D899E8956
:1005D0000E943F0418164CF520E030E040E251E460
:1005E0006F85788989899A890E944304DC01CB014F
:1005F000BC01CD010E949E03DC01CB01988F8F8B43
:100600000FC088EC90E09A8F898F898D9A8D019721
:10061000F1F79A8F898F8F89988D0197988F8F8B9B
:100620008F89988D009769F714C06B897C898D89B3
:100630009E890E949E03DC01CB01988F8F8B8F894E
:10064000988D9C8F8B8F8B8D9C8D0197F1F79C8F54
:100650008B8F6C960FB6F894DEBF0FBECDBFDF91C7
:10066000CF910895CF93DF9300D0CDB7DEB79A83B3
:10067000898385EC90E029813A81232F3327FC017F
:10068000208384EC90E02981FC01208381EC90E0C0
:1006900028E1FC01208382EC90E02EE0FC01208325
:1006A0000F900F90DF91CF910895CF93DF931F921A
:1006B000CDB7DEB78983000080EC90E0FC0180813B
:1006C000882F90E0807299270097B1F386EC90E034
:1006D0002981FC0120830F90DF91CF910895CF9362
:1006E000DF9300D000D0CDB7DEB79C838B831A8216
:1006F00019820FC089819A812B813C81820F931FBF
:10070000FC0180810E94550389819A8101969A8318
:10071000898389819A812B813C81820F931FFC01FF
:100720008081882339F70F900F900F900F90DF9101
:10073000CF9108952FD008F481E008957FD088F0FC
:100740009F5790F0B92F9927B751A0F0D1F0660FBD
:10075000771F881F991F1AF0BA95C9F712C0B130D8
:1007600081F086D0B1E0089583C0672F782F882765
:10077000B85F39F0B93FCCF3869577956795B39517
:10078000D9F73EF490958095709561957F4F8F4F86
:100790009F4F0895990F0008550FAA0BE0E8FEEF50
:1007A00016161706E807F907C0F012161306E40735
:1007B000F50798F0621B730B840B950B39F40A262E
:1007C00061F0232B242B252B21F408950A2609F40C
:1007D000A140A6958FEF811D811D089597F99F6710
:1007E00080E870E060E008959FEF80EC08950024B9
:1007F0000A941616170618060906089500240A9486
:1008000012161306140605060895092E0394000C0B
:1008100011F4882352F0BB0F40F4BF2B11F460FF9A
:1008200004C06F5F7F4F8F4F9F4F089557FD9058C3
:10083000440F551F59F05F3F71F04795880F97FBA4
:10084000991F61F09F3F79F087950895121613065E
:100850001406551FF2CF4695F1DF08C0161617068D
:100860001806991FF1CF86957105610508940895C2
:10087000E894BB2766277727CB0197F908958ADF8D
:1008800008F48FEF08950BD0C0CFB1DF28F0B6DFAA
:1008900018F0952309F0A2CFA7CF1124EACFC6DF25
:1008A000A0F3959FD1F3950F50E0551F629FF00183
:1008B000729FBB27F00DB11D639FAA27F00DB11DDC
:1008C000AA1F649F6627B00DA11D661F829F222765
:1008D000B00DA11D621F739FB00DA11D621F839FEC
:1008E000A00D611D221F749F3327A00D611D231FC2
:1008F000849F600D211D822F762F6A2F11249F5710
:1009000050408AF0E1F088234AF0EE0FFF1FBB1F32
:10091000661F771F881F91505040A9F79E3F5105D1
:1009200070F05CCFA6CF5F3FECF3983EDCF386958A
:1009300077956795B795F795E7959F5FC1F7FE2B7C
:10094000880F911D9695879597F90895F894FFCF94
:100950004D6F746F7220436F6E74726F6C6C657242
:0E0960002056302E312052656164792121002D
:00000001FF
