:100000000C9434000C9449000C9449000C94490061
:100010000C9449000C9449000C9449000C9449003C
:100020000C9449000C9449000C9449000C9449002C
:100030000C9449000C9449000C9449000C9449001C
:100040000C9449000C9449000C9449000C9449000C
:100050000C9449000C9449000C9449000C944900FC
:100060000C9449000C94490011241FBECFEFD8E036
:10007000DEBFCDBF11E0A0E0B1E0E8E2F2E102C0F6
:1000800005900D92A232B107D9F70E944B000C9453
:1000900012090C940000CF93DF93CDB7DEB72D97F4
:1000A0000FB6F894DEBF0FBECDBF0E94AD000E9418
:1000B000E80183E390E00E94B1031A8219821B8257
:1000C00080E091E00E94EE038DE090E00E94D40376
:1000D0008AE090E00E94D40389819A810E942303E0
:1000E0000E9419048B838B81882F90E083379105C0
:1000F00049F08737910561F489819A8101969A8345
:10010000898306C089819A8101979A838983000037
:100110008A818F9389818F938EE191E0892F8F93CC
:100120008EE191E08F93CE010496292F2F938F9328
:100130000E9441060F900F900F900F900F900F901C
:10014000CE0104960E94EE038DE090E00E94D4035D
:100150008AE090E00E94D403BFCFCF93DF93CDB766
:10016000DEB76C970FB6F894DEBF0FBECDBF84E24A
:1001700090E024E230E0F90120812260FC0120833C
:1001800087E290E027E230E0F90120812760FC015E
:10019000208380E890E020E830E0F90120812268A7
:1001A000FC01208381E890E021E830E0F901208122
:1001B0002A61FC01208388E890E02FEF38E0FC0101
:1001C0003183208386E890E020E030E5FC01318334
:1001D000208388E290E028E230E0F9012081276066
:1001E000FC01208380E090E0A6E9B3E489839A8350
:1001F000AB83BC8320E030E04AEF54E469817A812C
:100200008B819C810E94DE05DC01CB018D839E8366
:10021000AF83B88720E030E040E85FE36D817E8106
:100220008F8198850E94900488232CF481E090E0CF
:100230009A8789873FC020E03FEF4FE757E46D8101
:100240007E818F8198850E94DA0518164CF520E092
:1002500030E040E251E469817A818B819C810E9487
:10026000DE05DC01CB01BC01CD010E94FC04DC01F8
:10027000CB019A8789870FC088EC90E09C878B8799
:100280008B859C850197F1F79C878B8789859A855B
:1002900001979A87898789859A85009769F714C09D
:1002A0006D817E818F8198850E94FC04DC01CB01E9
:1002B0009A87898789859A859E878D878D859E8572
:1002C0000197F1F79E878D8788E290E028E230E081
:1002D000F9012081287FFC01208380E090E0A6E9DD
:1002E000B3E48F87988BA98BBA8B20E030E04AEF7C
:1002F00054E46F85788989899A890E94DE05DC013A
:10030000CB018B8B9C8BAD8BBE8B20E030E040E82B
:100310005FE36B897C898D899E890E949004882384
:100320002CF481E090E0988F8F8B3FC020E03FEF6E
:100330004FE757E46B897C898D899E890E94DA0595
:1003400018164CF520E030E040E251E46F857889E2
:1003500089899A890E94DE05DC01CB01BC01CD01AF
:100360000E94FC04DC01CB01988F8F8B0FC088ECBE
:1003700090E09A8F898F898D9A8D0197F1F79A8FE6
:10038000898F8F89988D0197988F8F8B8F89988D02
:10039000009769F714C06B897C898D899E890E94BA
:1003A000FC04DC01CB01988F8F8B8F89988D9C8FFB
:1003B0008B8F8B8D9C8D0197F1F79C8F8B8F6C961B
:1003C0000FB6F894DEBF0FBECDBFDF91CF91089579
:1003D000CF93DF93CDB7DEB76C970FB6F894DEBF3F
:1003E0000FBECDBF84E290E024E230E0F90120812D
:1003F0002460FC01208387E290E027E230E0F901ED
:1004000020812760FC01208380E890E020E830E034
:10041000F90120812262FC01208381E890E021E83B
:1004200030E0F90120812A61FC0120838AE890E014
:100430002FEF38E0FC013183208386E890E020E054
:1004400030E5FC013183208388E290E028E230E04F
:10045000F90120812760FC01208380E090E0A6E97B
:10046000B3E489839A83AB83BC8320E030E04AEF16
:1004700054E469817A818B819C810E94DE05DC01D4
:10048000CB018D839E83AF83B88720E030E040E8C6
:100490005FE36D817E818F8198850E94900488231F
:1004A0002CF481E090E09A8789873FC020E03FEFFD
:1004B0004FE757E46D817E818F8198850E94DA0530
:1004C00018164CF520E030E040E251E469817A8171
:1004D0008B819C810E94DE05DC01CB01BC01CD013A
:1004E0000E94FC04DC01CB019A8789870FC088EC4D
:1004F00090E09C878B878B859C850197F1F79C8783
:100500008B8789859A8501979A87898789859A85B6
:10051000009769F714C06D817E818F8198850E9454
:10052000FC04DC01CB019A87898789859A859E879F
:100530008D878D859E850197F1F79E878D8788E24F
:1005400090E028E230E0F9012081287FFC0120833F
:1005500080E090E0A6E9B3E48F87988BA98BBA8BF3
:1005600020E030E04AEF54E46F85788989899A89E0
:100570000E94DE05DC01CB018B8B9C8BAD8BBE8B8F
:1005800020E030E040E85FE36B897C898D899E89BB
:100590000E94900488232CF481E090E0988F8F8B48
:1005A0003FC020E03FEF4FE757E46B897C898D899E
:1005B0009E890E94DA0518164CF520E030E040E2F2
:1005C00051E46F85788989899A890E94DE05DC016A
:1005D000CB01BC01CD010E94FC04DC01CB01988F52
:1005E0008F8B0FC088EC90E09A8F898F898D9A8DC0
:1005F0000197F1F79A8F898F8F89988D0197988F3E
:100600008F8B8F89988D009769F714C06B897C89CF
:100610008D899E890E94FC04DC01CB01988F8F8B11
:100620008F89988D9C8F8B8F8B8D9C8D0197F1F787
:100630009C8F8B8F6C960FB6F894DEBF0FBECDBF2C
:10064000DF91CF9108950F931F93CF93DF93CDB791
:10065000DEB728970FB6F894DEBF0FBECDBF9887E0
:100660008F831A8219821B821C821D821E8288E25D
:1006700090E028E230E0F90120812260FC01208333
:1006800080E097E09A8389838F8198858C599F4F6A
:10069000AA2797FDA095BA2FBC01CD010E942A057B
:1006A000DC01CB018B839C83AD83BE8320E030E0F3
:1006B00040E854E46B817C818D819E810E94DE053F
:1006C000DC01CB0120E030E040E050E4BC01CD0192
:1006D0000E949404DC01CB018B839C83AD83BE8399
:1006E00020E030E048EC52E46B817C818D819E817A
:1006F0000E949404DC01CB018B839C83AD83BE8379
:1007000020E030E040E854E46B817C818D819E8163
:100710000E942C04DC01CB018B839C83AD83BE83C0
:100720000AE810E06B817C818D819E810E94FC042F
:10073000DC01CB01F8019183808388E290E028E21C
:1007400030E0F90120812D7FFC01208328960FB62F
:10075000F894DEBF0FBECDBFDF91CF911F910F91F7
:100760000895CF93DF9300D0CDB7DEB79A83898306
:1007700085EC90E029813A81232F3327FC012083E7
:1007800084EC90E02981FC01208381EC90E028E159
:10079000FC01208382EC90E02EE0FC0120830F908E
:1007A0000F90DF91CF910895CF93DF931F92CDB734
:1007B000DEB78983000080EC90E0FC018081882F07
:1007C00090E0807299270097B1F386EC90E0298140
:1007D000FC0120830F90DF91CF910895CF93DF9399
:1007E00000D000D0CDB7DEB79C838B831A821982EC
:1007F0000FC089819A812B813C81820F931FFC015C
:1008000080810E94D40389819A8101969A83898389
:1008100089819A812B813C81820F931FFC01808109
:10082000882339F70F900F900F900F90DF91CF91A1
:100830000895CF93DF93CDB7DEB7000080EC90E052
:10084000FC0180818823D4F786EC90E0FC01808154
:10085000DF91CF9108955058BB27AA270ED070C1C1
:1008600061D130F066D120F031F49F3F11F41EF4D5
:1008700056C10EF4E095E7FB4CC1E92F72D180F32D
:10088000BA17620773078407950718F071F49EF58D
:100890008AC10EF4E0950B2EBA2FA02D0B01B901E1
:1008A00090010C01CA01A0011124FF27591B99F0E6
:1008B000593F50F4503E68F11A16F040A22F232FF2
:1008C000342F4427585FF3CF469537952795A79542
:1008D000F0405395C9F77EF41F16BA0B620B730BE9
:1008E000840BBAF09150A1F0FF0FBB1F661F771F5A
:1008F000881FC2F70EC0BA0F621F731F841F48F40F
:10090000879577956795B795F7959E3F08F0B3CF94
:100910009395880F08F09927EE0F9795879508957E
:10092000D4D008F481E008950CD00AC102D140F07F
:10093000F9D030F021F45F3F19F0EBC0511134C110
:10094000EEC00FD198F39923C9F35523B1F3951B4A
:10095000550BBB27AA2762177307840738F09F5FE0
:100960005F4F220F331F441FAA1FA9F333D00E2E4F
:100970003AF0E0E830D091505040E695001CCAF7BC
:1009800029D0FE2F27D0660F771F881FBB1F261781
:1009900037074807AB07B0E809F0BB0B802DBF0154
:1009A000FF2793585F4F2AF09E3F510568F0B1C072
:1009B000FBC05F3FECF3983EDCF386957795679537
:1009C000B795F7959F5FC9F7880F911D9695879505
:1009D00097F90895E1E0660F771F881FBB1F621724
:1009E00073078407BA0720F0621B730B840BBA0BE2
:1009F000EE1F88F7E0950895BCD088F09F5790F0DF
:100A0000B92F9927B751A0F0D1F0660F771F881F33
:100A1000991F1AF0BA95C9F712C0B13081F0C3D04E
:100A2000B1E00895C0C0672F782F8827B85F39F0EC
:100A3000B93FCCF3869577956795B395D9F73EF492
:100A400090958095709561957F4F8F4F9F4F08953A
:100A5000E89409C097FB3EF4909580957095619558
:100A60007F4F8F4F9F4F9923A9F0F92F96E9BB270E
:100A70009395F695879577956795B795F111F8CF8A
:100A8000FAF4BB0F11F460FF1BC06F5F7F4F8F4FF5
:100A90009F4F16C0882311F096E911C0772321F0EB
:100AA0009EE8872F762F05C0662371F096E8862F83
:100AB00070E060E02AF09A95660F771F881FDAF7DA
:100AC000880F9695879597F90895990F0008550F07
:100AD000AA0BE0E8FEEF16161706E807F907C0F0C4
:100AE00012161306E407F50798F0621B730B840BCC
:100AF000950B39F40A2661F0232B242B252B21F4A6
:100B000008950A2609F4A140A6958FEF811D811D45
:100B1000089597F99F6780E870E060E008959FEF7F
:100B200080EC089500240A94161617061806090684
:100B3000089500240A941216130614060506089553
:100B4000092E0394000C11F4882352F0BB0F40F4DB
:100B5000BF2B11F460FF04C06F5F7F4F8F4F9F4F1B
:100B6000089557FD9058440F551F59F05F3F71F09D
:100B70004795880F97FB991F61F09F3F79F0879504
:100B80000895121613061406551FF2CF4695F1DF8D
:100B900008C0161617061806991FF1CF869571051D
:100BA000610508940895E894BB2766277727CB0151
:100BB00097F908958ADF08F48FEF08950BD0C0CF1E
:100BC000B1DF28F0B6DF18F0952309F0A2CFA7CF48
:100BD0001124EACFC6DFA0F3959FD1F3950F50E023
:100BE000551F629FF001729FBB27F00DB11D639FDF
:100BF000AA27F00DB11DAA1F649F6627B00DA11D85
:100C0000661F829F2227B00DA11D621F739FB00D2A
:100C1000A11D621F839FA00D611D221F749F33279A
:100C2000A00D611D231F849F600D211D822F762F33
:100C30006A2F11249F5750408AF0E1F088234AF030
:100C4000EE0FFF1FBB1F661F771F881F915050407C
:100C5000A9F79E3F510570F05CCFA6CF5F3FECF344
:100C6000983EDCF3869577956795B795F795E79568
:100C70009F5FC1F7FE2B880F911D9695879597F979
:100C80000895AEE0B0E0E7E4F6E00C94E9080D89E1
:100C90001E8986E08C831A8309838FEF9FE79E83EA
:100CA0008D83AE01475E5F4F6F89788DCE010196CF
:100CB0000E946306EF81F885E00FF11F10822E96E7
:100CC000E4E00C940509ACE0B0E0E9E6F6E00C9451
:100CD000DB087C016B018A01FC011782168283818B
:100CE00081FFBDC1CE0101964C01F7019381F60150
:100CF00093FD859193FF81916F01882309F4ABC126
:100D0000853239F493FD859193FF81916F0185328E
:100D100029F4B70190E00E944B08E7CF512C312C09
:100D200020E02032A0F48B3269F030F4803259F0A8
:100D3000833269F420612CC08D3239F0803339F46C
:100D4000216026C02260246023C0286021C027FDC6
:100D500027C030ED380F3A3078F426FF06C0FAE0AD
:100D60005F9E300D1124532E13C08AE0389E300D43
:100D70001124332E20620CC08E3221F426FD6BC16B
:100D8000206406C08C3611F4206802C0883641F415
:100D9000F60193FD859193FF81916F018111C1CF80
:100DA000982F9F7D9554933028F40C5F1F4FFFE3DD
:100DB000F9830DC0833631F0833771F0833509F044
:100DC0005BC022C0F801808189830E5F1F4F4424DD
:100DD0004394512C540115C03801F2E06F0E711C80
:100DE000F801A080B18026FF03C0652D70E002C02D
:100DF0006FEF7FEFC5012C870E9440082C01830113
:100E00002C852F77222E17C03801F2E06F0E711C4F
:100E1000F801A080B18026FF03C0652D70E002C0FC
:100E20006FEF7FEFC5012C870E9435082C012C85C0
:100E30002068222E830123FC1BC0832D90E04816DE
:100E40005906B0F4B70180E290E00E944B083A9452
:100E5000F4CFF50127FC859127FE81915F01B70151
:100E600090E00E944B0831103A94F1E04F1A51087B
:100E70004114510471F7E5C0843611F0893639F513
:100E8000F80127FF07C060817181828193810C5F27
:100E90001F4F08C060817181882777FD8095982F4A
:100EA0000E5F1F4F2F76B22E97FF09C09095809549
:100EB000709561957F4F8F4F9F4F2068B22E2AE02B
:100EC00030E0A4010E947D08A82EA81844C08537F0
:100ED00029F42F7EB22E2AE030E025C0F22FF97FD0
:100EE000BF2E8F36C1F018F4883579F0B4C0803742
:100EF00019F0883721F0AFC02F2F2061B22EB4FE39
:100F00000DC08B2D8460B82E09C024FF0AC09F2F0E
:100F10009660B92E06C028E030E005C020E130E040
:100F200002C020E132E0F801B7FE07C060817181A4
:100F3000828193810C5F1F4F06C06081718180E0C8
:100F400090E00E5F1F4FA4010E947D08A82EA818F4
:100F5000FB2DFF77BF2EB6FE0BC02B2D2E7FA514C9
:100F600050F4B4FE0AC0B2FC08C02B2D2E7E05C082
:100F70007A2C2B2D03C07A2C01C0752C24FF0DC0B8
:100F8000FE01EA0DF11D8081803311F4297E09C034
:100F900022FF06C07394739404C0822F867809F0F0
:100FA000739423FD13C020FF06C05A2C731418F449
:100FB000530C5718732C731468F4B70180E290E057
:100FC0002C870E944B0873942C85F5CF731410F472
:100FD000371801C0312C24FF12C0B70180E390E024
:100FE0002C870E944B082C8522FF17C021FF03C0CD
:100FF00088E590E002C088E790E0B7010CC0822F3E
:10100000867859F021FD02C080E201C08BE227FD05
:101010008DE2B70190E00E944B08A51438F4B701A7
:1010200080E390E00E944B085A94F7CFAA94F40111
:10103000EA0DF11D8081B70190E00E944B08A110DC
:10104000F5CF332009F451CEB70180E290E00E9441
:101050004B083A94F6CFF7018681978102C08FEF53
:101060009FEF2C96E2E10C94F708FC01059061508B
:1010700070400110D8F7809590958E0F9F1F0895AE
:10108000FC016150704001900110D8F78095909557
:101090008E0F9F1F08950F931F93CF93DF93182FE9
:1010A000092FEB018B8181FD03C08FEF9FEF20C0E3
:1010B00082FF10C04E815F812C813D814217530712
:1010C0007CF4E881F9819F012F5F3F4F39832883AA
:1010D000108306C0E885F985812F0995892B29F7AA
:1010E0002E813F812F5F3F4F3F832E83812F902F93
:1010F000DF91CF911F910F910895FA01AA2728300F
:1011000051F1203181F1E8946F936E7F6E5F7F4FD4
:101110008F4F9F4FAF4FB1E03ED0B4E03CD0670F50
:10112000781F891F9A1FA11D680F791F8A1F911DA3
:10113000A11D6A0F711D811D911DA11D20D009F4F3
:1011400068943F912AE0269F11243019305D319335
:10115000DEF6CF010895462F4770405D4193B3E01E
:101160000FD0C9F7F6CF462F4F70405D4A3318F0C5
:10117000495D31FD4052419302D0A9F7EACFB4E076
:10118000A6959795879577956795BA95C9F700972E
:101190006105710508959B01AC010A2E06945795CF
:1011A000479537952795BA95C9F7620F731F841F26
:1011B000951FA01D08952F923F924F925F926F92BC
:1011C0007F928F929F92AF92BF92CF92DF92EF92D7
:1011D000FF920F931F93CF93DF93CDB7DEB7CA1B58
:1011E000DB0B0FB6F894DEBF0FBECDBF09942A8883
:1011F000398848885F846E847D848C849B84AA842B
:10120000B984C884DF80EE80FD800C811B81AA81B7
:10121000B981CE0FD11D0FB6F894DEBF0FBECDBF82
:08122000ED010895F894FFCFE1
:101228004D6F746F7220436F6E74726F6C6C657261
:101238002056302E312052656164792121002569BC
:021248000000A4
:00000001FF
