S01D00004D4F544F525F4D414E4147454D454E545F56305F312E73726563C5
S11300000C9434000C943E000C943E000C943E007E
S11300100C943E000C943E000C943E000C943E0064
S11300200C943E000C943E000C943E000C943E0054
S11300300C943E000C943E000C943E000C943E0044
S11300400C943E000C943E000C943E000C943E0034
S11300500C943E000C943E000C943E000C943E0024
S11300600C943E000C943E0011241FBECFEFD8E048
S1130070DEBFCDBF0E9440000C9418080C94000011
S11300800F931F93CF93DF93CDB7DEB7CC55D10930
S11300900FB6F894DEBF0FBECDBF0E94EA030E94E4
S11300A067058AE590E098878F838F810E94A20676
S11300B01A8219827AC089810E94250580E090E025
S11300C0A0E2B1E489879A87AB87BC8720E030E05F
S11300D04AEF54E469857A858B859C850E9465077F
S11300E0DC01CB018D879E87AF87B88B20E030E0A1
S11300F040E85FE36D857E858F8598890E94E406DC
S113010088232CF481E090E09A8B898B3FC020E017
S11301103FEF4FE757E46D857E858F8598890E9470
S1130120610718164CF520E030E040E251E469859F
S11301307A858B859C850E946507DC01CB01BC0117
S1130140CD010E94E806DC01CB019A8B898B0FC09C
S113015088EC90E09C8B8B8B8B899C890197F1F7C1
S11301609C8B8B8B89899A8901979A8B898B898936
S11301709A89009769F714C06D857E858F85988963
S11301800E94E806DC01CB019A8B898B89899A89C4
S11301909E8B8D8B8D899E890197F1F79E8B8D8B1C
S11301A089819A8101969A83898389819A818A3582
S11301B091050CF480CF80E090E0AAE7B4E48F8B43
S11301C0988FA98FBA8F20E030E04AEF54E46F890A
S11301D0788D898D9A8D0E946507DC01CB018B8F08
S11301E09C8FAD8FBE8F20E030E040E85FE36B8DE5
S11301F07C8D8D8D9E8D0E94E40688232CF481E0F5
S113020090E098A38F8F3FC020E03FEF4FE757E483
S11302106B8D7C8D8D8D9E8D0E94610718164CF51B
S113022020E030E040E251E46F89788D898D9A8D29
S11302300E946507DC01CB01BC01CD010E94E806E8
S1130240DC01CB0198A38F8F0FC088EC90E09AA3B8
S113025089A389A19AA10197F1F79AA389A38F8D04
S113026098A1019798A38F8F8F8D98A1009769F714
S113027014C06B8D7C8D8D8D9E8D0E94E806DC01F3
S1130280CB0198A38F8F8F8D98A19CA38BA38BA157
S11302909CA10197F1F79CA38BA38AE590E09C8332
S11302A08B837AC08B810E94250580E090E0A0E2D8
S11302B0B1E48DA39EA3AFA3B8A720E030E04AEF3A
S11302C054E46DA17EA18FA198A50E946507DC016D
S11302D0CB0189A79AA7ABA7BCA720E030E040E8F0
S11302E05FE369A57AA58BA59CA50E94E4068823F3
S11302F02CF481E090E09EA78DA73FC020E03FEF63
S11303004FE757E469A57AA58BA59CA50E946107D0
S113031018164CF520E030E040E251E46DA17EA1D6
S11303208FA198A50E946507DC01CB01BC01CD011A
S11303300E94E806DC01CB019EA78DA70FC088ECC4
S113034090E098AB8FA78FA598A90197F1F798AB88
S11303508FA78DA59EA501979EA78DA78DA59EA568
S1130360009769F714C069A57AA58BA59CA50E947E
S1130370E806DC01CB019EA78DA78DA59EA59AABAF
S113038089AB89A99AA90197F1F79AAB89AB8B81BB
S11303909C8101969C838B838B819C81843B9105FA
S11303A00CF480CF80E090E0AAE7B4E48BAB9CAB84
S11303B0ADABBEAB20E030E04AEF54E46BA97CA9BE
S11303C08DA99EA90E946507DC01CB018FAB98AF74
S11303D0A9AFBAAF20E030E040E85FE36FA978ADA1
S11303E089AD9AAD0E94E40688232CF481E090E064
S11303F09CAF8BAF3FC020E03FEF4FE757E46FA9BE
S113040078AD89AD9AAD0E94610718164CF520E0CD
S113041030E040E251E46BA97CA98DA99EA90E9419
S11304206507DC01CB01BC01CD010E94E806DC01BB
S1130430CB019CAF8BAF0FC088EC90E09EAF8DAF2B
S11304408DAD9EAD0197F1F79EAF8DAF8BAD9CAD99
S113045001979CAF8BAF8BAD9CAD009769F71EC025
S11304606FA978AD89AD9AAD0E94E806DC01CB0195
S11304709CAF8BAF2BAD3CADCE01CF96FC0131834D
S11304802083CE01CF96FC01808191810197F1F701
S11304909E01215C3F4FF9019183808384EB90E0BE
S11304A09E838D83CCC08D810E9425059E012F5B88
S11304B03F4F80E090E0A0E2B1E4F90180839183B2
S11304C0A283B3838E010B5B1F4FCE018F5B9F4FC3
S11304D020E030E04AEF54E4FC01608171818281C4
S11304E093810E946507DC01CB01F801808391832D
S11304F0A283B383CE018B5B9F4F20E030E040E8C2
S11305005FE3FC0160817181828193810E94E40632
S113051088234CF4CE01875B9F4F21E030E0FC013F
S1130520318320836DC0CE018B5B9F4F20E03FEF72
S11305304FE757E4FC0160817181828193810E94BD
S1130540610718160CF04AC0CE018F5B9F4F20E064
S113055030E040E251E4FC01608171818281938149
S11305600E946507DC01CB018E01075B1F4FBC01B4
S1130570CD010E94E806DC01CB01F8019183808360
S113058024C0CE01855B9F4F28EC30E0FC01318311
S11305902083CE01855B9F4FFC018081918101976F
S11305A0F1F79E01255B3F4FF90191838083CE01D2
S11305B0875B9F4F9E01275B3F4FF901208131816B
S11305C021503109FC0131832083CE01875B9F4F89
S11305D0FC01808191810097A1F62CC08E01075BFC
S11305E01F4FCE018B5B9F4FFC0160817181828123
S11305F093810E94E806DC01CB01F801918380839A
S1130600CE01835B9F4F9E01275B3F4FF901208101
S11306103181FC0131832083CE01835B9F4FFC0138
S1130620808191810197F1F79E01235B3F4FF9018E
S1130630918380838D819E8101979E838D838D819B
S11306409E81181619060CF42ECF9E01215B3F4F94
S113065080E090E0AAE7B4E4F90180839183A28367
S1130660B3838E010D5A1F4FCE01815B9F4F20E053
S113067030E04AEF54E4FC0160817181828193810E
S11306800E946507DC01CB01F80180839183A2837A
S1130690B383CE018D5A9F4F20E030E040E85FE302
S11306A0FC0160817181828193810E94E406882328
S11306B04CF4CE01895A9F4F21E030E0FC01318394
S11306C020836DC0CE018D5A9F4F20E03FEF4FE74E
S11306D057E4FC0160817181828193810E946107EA
S11306E018160CF04AC0CE01815B9F4F20E030E029
S11306F040E251E4FC0160817181828193810E9416
S11307006507DC01CB018E01095A1F4FBC01CD01E5
S11307100E94E806DC01CB01F8019183808324C0A8
S1130720CE01875A9F4F28EC30E0FC0131832083AF
S1130730CE01875A9F4FFC01808191810197F1F787
S11307409E01275A3F4FF90191838083CE01895A34
S11307509F4F9E01295A3F4FF90120813181215039
S11307603109FC0131832083CE01895A9F4FFC015A
S1130770808191810097A1F698CC8E01095A1F4F70
S1130780CE018D5A9F4FFC016081718182819381DA
S11307900E94E806DC01CB01F80191838083CE013D
S11307A0855A9F4F9E01295A3F4FF901208131817B
S11307B0FC0131832083CE01855A9F4FFC01808147
S11307C091810197F1F79E01255A3F4FF9019183D9
S11307D080836BCCCF93DF93CDB7DEB76C970FB626
S11307E0F894DEBF0FBECDBF84E290E024E230E097
S11307F0F90120812260FC01208387E290E027E256
S113080030E0F90120812760FC01208380E890E03A
S113081020E830E0F90120812268FC01208381E88E
S113082090E021E830E0F90120812A61FC01208375
S113083088E890E02FEF38E0FC013183208386E8DC
S113084090E020E030E5FC013183208388E290E0F1
S113085028E230E0F90120812760FC01208380E058
S113086090E0A6E9B3E489839A83AB83BC8320E058
S113087030E04AEF54E469817A818B819C810E9443
S11308806507DC01CB018D839E83AF83B88720E0AD
S113089030E040E85FE36D817E818F8198850E941E
S11308A0E40688232CF481E090E09A8789873FC08E
S11308B020E03FEF4FE757E46D817E818F8198857B
S11308C00E94610718164CF520E030E040E251E444
S11308D069817A818B819C810E946507DC01CB014F
S11308E0BC01CD010E94E806DC01CB019A8789870F
S11308F00FC088EC90E09C878B878B859C85019743
S1130900F1F79C878B8789859A8501979A878987D0
S113091089859A85009769F714C06D817E818F81DE
S113092098850E94E806DC01CB019A87898789852E
S11309309A859E878D878D859E850197F1F79E8781
S11309408D8788E290E028E230E0F9012081287F59
S1130950FC01208380E090E0A6E9B3E48F87988BC4
S1130960A98BBA8B20E030E04AEF54E46F85788994
S113097089899A890E946507DC01CB018B8B9C8B4A
S1130980AD8BBE8B20E030E040E85FE36B897C896F
S11309908D899E890E94E40688232CF481E090E0EE
S11309A0988F8F8B3FC020E03FEF4FE757E46B8970
S11309B07C898D899E890E94610718164CF520E078
S11309C030E040E251E46F85788989899A890E94F0
S11309D06507DC01CB01BC01CD010E94E806DC0106
S11309E0CB01988F8F8B0FC088EC90E09A8F898F02
S11309F0898D9A8D0197F1F79A8F898F8F89988DB8
S1130A000197988F8F8B8F89988D009769F714C001
S1130A106B897C898D899E890E94E806DC01CB0163
S1130A20988F8F8B8F89988D9C8F8B8F8B8D9C8DBE
S1130A300197F1F79C8F8B8F6C960FB6F894DEBFFD
S1130A400FBECDBFDF91CF910895CF93DF9300D038
S1130A5000D01F92CDB7DEB78B831A82198288E249
S1130A6090E028E230E0F90120812260FC0120833B
S1130A7080E097E09A83898328E830E089819A812D
S1130A8044EB50E0BA010E94F007CB01BC018B811A
S1130A90482F50E0649FC001659F900D749F900D96
S1130AA0112481509E4FF9019183808388E290E064
S1130AB028E230E0F90120812D7FFC0120830F9092
S1130AC00F900F900F900F90DF91CF910895CF93D7
S1130AD0DF93CDB7DEB76C970FB6F894DEBF0FBEC9
S1130AE0CDBF84E290E024E230E0F901208124606B
S1130AF0FC01208387E290E027E230E0F9012081C5
S1130B002760FC01208380E890E020E830E0F901D0
S1130B1020812262FC01208381E890E021E830E01A
S1130B20F90120812A61FC0120838AE890E02FEFFB
S1130B3038E0FC013183208386E890E020E030E552
S1130B40FC013183208388E290E028E230E0F9015F
S1130B5020812760FC01208380E090E0A6E9B3E4D3
S1130B6089839A83AB83BC8320E030E04AEF54E46A
S1130B7069817A818B819C810E946507DC01CB01AC
S1130B808D839E83AF83B88720E030E040E85FE345
S1130B906D817E818F8198850E94E40688232CF4E0
S1130BA081E090E09A8789873FC020E03FEF4FE7DC
S1130BB057E46D817E818F8198850E9461071816A4
S1130BC04CF520E030E040E251E469817A818B8188
S1130BD09C810E946507DC01CB01BC01CD010E9410
S1130BE0E806DC01CB019A8789870FC088EC90E086
S1130BF09C878B878B859C850197F1F79C878B87D6
S1130C0089859A8501979A87898789859A85009726
S1130C1069F714C06D817E818F8198850E94E806F2
S1130C20DC01CB019A87898789859A859E878D8780
S1130C308D859E850197F1F79E878D8788E290E0E8
S1130C4028E230E0F9012081287FFC01208380E044
S1130C5090E0A6E9B3E48F87988BA98BBA8B20E048
S1130C6030E04AEF54E46F85788989899A890E9433
S1130C706507DC01CB018B8B9C8BAD8BBE8B20E09D
S1130C8030E040E85FE36B897C898D899E890E940E
S1130C90E40688232CF481E090E0988F8F8B3FC08A
S1130CA020E03FEF4FE757E46B897C898D899E896B
S1130CB00E94610718164CF520E030E040E251E450
S1130CC06F85788989899A890E946507DC01CB013F
S1130CD0BC01CD010E94E806DC01CB01988F8F8B0B
S1130CE00FC088EC90E09A8F898F898D9A8D019737
S1130CF0F1F79A8F898F8F89988D0197988F8F8BB1
S1130D008F89988D009769F714C06B897C898D89C8
S1130D109E890E94E806DC01CB01988F8F8B8F8916
S1130D20988D9C8F8B8F8B8D9C8D0197F1F79C8F69
S1130D308B8F6C960FB6F894DEBF0FBECDBFDF91DC
S1130D40CF910895CF93DF9300D000D01F92CDB7F9
S1130D50DEB78B831A82198288E290E028E230E0C1
S1130D60F90120812260FC01208380E097E09A83CE
S1130D7089832AE830E089819A8144EB50E0BA0102
S1130D800E94F007CB01BC018B81482F50E0649F87
S1130D90C001659F900D749F900D112481509E4F4A
S1130DA0F9019183808388E290E028E230E0F90140
S1130DB020812D7FFC0120830F900F900F900F90C6
S1130DC00F90DF91CF9108952FD008F481E008951A
S1130DD057D088F09F5790F0B92F9927B751A0F0BA
S1130DE0D1F0660F771F881F991F1AF0BA95C9F7BB
S1130DF012C0B13081F05ED0B1E008955BC0672FBE
S1130E00782F8827B85F39F0B93FCCF3869577956A
S1130E106795B395D9F73EF4909580957095619553
S1130E207F4F8F4F9F4F0895990F0008550FAA0BBE
S1130E30E0E8FEEF16161706E807F907C0F01216E9
S1130E401306E407F50798F0621B730B840B950BEC
S1130E5039F40A2661F0232B242B252B21F4089541
S1130E600A2609F4A140A6958FEF811D811D0895DE
S1130E7057FD9058440F551F59F05F3F71F0479547
S1130E80880F97FB991F61F09F3F79F0879508952C
S1130E90121613061406551FF2CF4695F1DF08C04B
S1130EA0161617061806991FF1CF86957105610568
S1130EB008940895E894BB2766277727CB0197F910
S1130EC00895B2DF08F48FEF08950BD078C069D08D
S1130ED028F06ED018F0952309F05AC05FC0112491
S1130EE0EACFC6DFA0F3959FD1F3950F50E0551FCD
S1130EF0629FF001729FBB27F00DB11D639FAA276B
S1130F00F00DB11DAA1F649F6627B00DA11D661FB9
S1130F10829F2227B00DA11D621F739FB00DA11DDA
S1130F20621F839FA00D611D221F749F3327A00D94
S1130F30611D231F849F600D211D822F762F6A2F30
S1130F4011249F5750408AF0E1F088234AF0EE0FB5
S1130F50FF1FBB1F661F771F881F91505040A9F7C2
S1130F609E3F510570F014C0A6CF5F3FECF3983E4E
S1130F70DCF3869577956795B795F795E7959F5F29
S1130F80C1F7FE2B880F911D9695879597F90895C3
S1130F9097F99F6780E870E060E008959FEF80EC28
S1130FA0089500240A9416161706180609060895CB
S1130FB000240A9412161306140605060895092E31
S1130FC00394000C11F4882352F0BB0F40F4BF2BA0
S1130FD011F460FF04C06F5F7F4F8F4F9F4F0895E0
S1130FE097FB072E16F4009407D077FD09D00E94D2
S1130FF0040807FC05D03EF4909581959F4F089511
S1131000709561957F4F0895AA1BBB1B51E107C0E2
S1131010AA1FBB1FA617B70710F0A61BB70B881F84
S1131020991F5A95A9F780959095BC01CD01089513
S1071030F894FFCF5E
S9030000FC
