:100000000C9434000C9446000C9446000C9446006A
:100010000C9446000C9446000C9446000C94460048
:100020000C9446000C9446000C9446000C94460038
:100030000C9446000C9446000C9446000C94460028
:100040000C9446000C9446000C9446000C94460018
:100050000C9446000C9446000C9446000C94460008
:100060000C9446000C94460011241FBECFEFD8E03C
:10007000DEBFCDBF21E0A0E0B1E001C01D92A13004
:10008000B207E1F70E9459000C943F070C9400005E
:10009000CF93DF93CDB7DEB78AEB90E026E1FC018A
:1000A00020838CEB90E024E4FC012083DF91CF914E
:1000B0000895CF93DF93CDB7DEB7C154D1090FB602
:1000C000F894DEBF0FBECDBF0E947B030E94860462
:1000D00080E890E00E94C10580E80E94440480E826
:1000E00090E09C838B830E9448001A82198284E4EA
:1000F00090E024E430E0F90120812068FC012083B5
:1001000084E490E024E430E0F90120812062FC01E5
:10011000208384E490E024E430E0F901208123602E
:10012000FC01208385E490E025E430E0F9012081A2
:100130002260FC0120838AE290E02AE230E0F901AB
:1001400020812066FC01208389EB90E0FC01808106
:10015000882F90E08038910509F43BC1803A9105E1
:1001600009F43DC28036910509F043C28CEB90E062
:100170002CEB30E0F9012081206CFC01208320C1B0
:1001800089819A8101969A83898389EB90E0FC01A9
:100190008081803809F0A2C08BEB90E0FC01808167
:1001A000282F30E0CE01CE96FC01318320838CEBEA
:1001B00090E02CEB30E0F9012081206CFC012083E1
:1001C00080E090E0A0E8BFE38E839F83A887B98793
:1001D00020E030E04AEF54E46E817F818885998584
:1001E0000E948C06DC01CB018A879B87AC87BD8788
:1001F00020E030E040E85FE36A857B858C859D8563
:100200000E940B0688232CF481E090E09F878E8764
:100210003FC020E03FEF4FE757E46A857B858C8540
:100220009D850E94880618164CF520E030E040E2DB
:1002300051E46E817F81888599850E948C06DC015E
:10024000CB01BC01CD010E940F06DC01CB019F87D1
:100250008E870FC088EC90E0998B888B888999896C
:100260000197F1F7998B888B8E859F8501979F87E2
:100270008E878E859F85009769F714C06A857B8578
:100280008C859D850E940F06DC01CB019F878E87A0
:100290008E859F859B8B8A8B8A899B890197F1F735
:1002A0009B8B8A8B89EB90E0FC0180818038A9F4DC
:1002B0008BEB90E0FC018081282F30E0CE01CE96C0
:1002C000FC01338322838CEB90E02CEB30E0F901CE
:1002D0002081206CFC01208379C078C080E090E010
:1002E000A0E8BFE38C8B9D8BAE8BBF8B20E030E012
:1002F0004AEF54E46C897D898E899F890E948C061F
:10030000DC01CB01888F998FAA8FBB8F20E030E072
:1003100040E85FE3688D798D8A8D9B8D0E940B0686
:1003200088232CF481E090E09D8F8C8F3FC020E0EB
:100330003FEF4FE757E4688D798D8A8D9B8D0E9442
:10034000880618164CF520E030E040E251E46C8954
:100350007D898E899F890E948C06DC01CB01BC01BE
:10036000CD010E940F06DC01CB019D8F8C8F0FC049
:1003700088EC90E09F8F8E8F8E8D9F8D0197F1F787
:100380009F8F8E8F8C8D9D8D01979D8F8C8F8C8DE7
:100390009D8D009769F714C0688D798D8A8D9B8D2E
:1003A0000E940F06DC01CB019D8F8C8F8C8D9D8D63
:1003B00099A388A388A199A10197F1F799A388A38C
:1003C00089819A81853091050CF4DACE1A821982DE
:1003D00010C18BEB90E0FC018081809300018CEBDD
:1003E00090E02CEB30E0F9012081206CFC012083AF
:1003F00088E290E028E230E0F90120812760FC01EA
:10040000208380E090E0A8E4B2E48AA39BA3ACA39D
:10041000BDA320E030E04AEF54E46AA17BA18CA1A7
:100420009DA10E948C06DC01CB018EA39FA3A8A7EF
:10043000B9A720E030E040E85FE36EA17FA188A586
:1004400099A50E940B0688232CF481E090E09BA7DD
:100450008AA73FC020E03FEF4FE757E46EA17FA19E
:1004600088A599A50E94880618164CF520E030E072
:1004700040E251E46AA17BA18CA19DA10E948C065F
:10048000DC01CB01BC01CD010E940F06DC01CB01D8
:100490009BA78AA70FC088EC90E09DA78CA78CA58E
:1004A0009DA50197F1F79DA78CA78AA59BA501970C
:1004B0009BA78AA78AA59BA5009769F714C06EA180
:1004C0007FA188A599A50E940F06DC01CB019BA7FF
:1004D0008AA78AA59BA59FA78EA78EA59FA50197F2
:1004E000F1F79FA78EA788E290E028E230E0F901BB
:1004F0002081287FFC01208380E090E0A8E4B2E422
:1005000088AB99ABAAABBBAB20E030E04AEF54E438
:1005100068A979A98AA99BA90E948C06DC01CB0154
:100520008CAB9DABAEABBFAB20E030E040E85FE30F
:100530006CA97DA98EA99FA90E940B0688232CF483
:1005400081E090E099AF88AF3FC020E03FEF4FE7F8
:1005500057E46CA97DA98EA99FA90E948806181648
:100560004CF520E030E040E251E468A979A98AA97D
:100570009BA90E948C06DC01CB01BC01CD010E942D
:100580000F06DC01CB0199AF88AF0FC088EC90E07B
:100590009BAF8AAF8AAD9BAD0197F1F79BAF8AAF56
:1005A00088AD99AD019799AF88AF88AD99AD0097A7
:1005B00069F71FC06CA97DA98EA99FA90E940F068B
:1005C000DC01CB0199AF88AF88AD99AD9DAF8CAF01
:1005D0008CAD9DAD0197F1F79DAF8CAF0AC08CEB50
:1005E00090E02CEB30E0F90120812068FC012083B1
:1005F0000000CE01CE96FC01808191818535910568
:10060000D1F5CE01CE96FC0182819381813891058E
:100610003CF0CE01CE96FC01828193810E9444047D
:10062000CE01CE96FC01828193818F3791053CF4F7
:10063000CE01CE96FC01828193810E944404CE01BA
:10064000CE96FC01828193818D838D818F3F51F401
:1006500088E290E028E230E0F90120812160FC018D
:10066000208309C088E290E028E230E0F90120818F
:100670002E7FFC012083CE01CE96FC0180819181EA
:1006800086369105B9F5CE01CE96FC018281938123
:10069000813891058CF087E490E09E01225C3F4F09
:1006A000F9012281338120583109220FFC01208376
:1006B00088E490E0FC011082CE01CE96FC0182819C
:1006C00093818F379105B4F487E490E0FC011082A8
:1006D00088E490E09E01225C3F4FF9012281338142
:1006E0004FE750E0BA01621B730B9B01220FFC0124
:1006F00020832ACD29CDCF93DF93CDB7DEB72E97B8
:100700000FB6F894DEBF0FBECDBF84E290E024E2C6
:1007100030E0F90120812260FC01208387E290E033
:1007200027E230E0F90120812760FC01208380E886
:1007300090E020E830E0F90120812268FC0120836C
:1007400081E890E021E830E0F90120812A61FC0194
:10075000208388E890E02FEF38E0FC01318320838C
:1007600086E890E020E030E5FC013183208388E2D8
:1007700090E028E230E0F90120812760FC0120832D
:1007800080E090E0A8E4B2E489839A83AB83BC83E1
:1007900020E030E04AEF54E469817A818B819C81CA
:1007A0000E948C06DC01CB018D839E83AF83B887CA
:1007B00020E030E040E85FE36D817E818F819885A5
:1007C0000E940B0688232CF481E090E09A878987A9
:1007D0003FC020E03FEF4FE757E46D817E818F817E
:1007E00098850E94880618164CF520E030E040E21B
:1007F00051E469817A818B819C810E948C06DC01A5
:10080000CB01BC01CD010E940F06DC01CB019A8710
:1008100089870FC088EC90E09C878B878B859C85AF
:100820000197F1F79C878B8789859A8501979A872D
:10083000898789859A85892B69F714C06D817E81A6
:100840008F8198850E940F06DC01CB019A878987EA
:1008500089859A859E878D878D859E850197F1F77D
:100860009E878D8788E290E028E230E0F9012081C0
:10087000287FFC0120832E960FB6F894DEBF0FBEB2
:10088000CDBFDF91CF910895CF93DF9300D000D0FB
:100890001F92CDB7DEB78B831A82198288E290E06F
:1008A00028E230E0F90120812260FC01208380E011
:1008B00097E09A83898328E830E089819A8144EB24
:1008C00050E0BA010E941707CB01BC018B81482F71
:1008D00050E0649FC001659F900D749F900D11249E
:1008E00081509E4FF9019183808388E290E028E255
:1008F00030E0F90120812D7FFC0120830F900F90C3
:100900000F900F900F90DF91CF910895CF93DF93C9
:10091000CDB7DEB76C970FB6F894DEBF0FBECDBF74
:1009200084E290E024E230E0F90120812460FC01BF
:10093000208387E290E027E230E0F9012081276000
:10094000FC01208380E890E020E830E0F90120817C
:100950002262FC01208381E890E021E830E0F90187
:1009600020812A61FC0120838AE890E02FEF38E0A3
:10097000FC013183208386E890E020E030E5FC0133
:100980003183208388E290E028E230E0F901208181
:100990002760FC01208380E090E0A6E9B3E489832E
:1009A0009A83AB83BC8320E030E04AEF54E4698152
:1009B0007A818B819C810E948C06DC01CB018D8326
:1009C0009E83AF83B88720E030E040E85FE36D812D
:1009D0007E818F8198850E940B0688232CF481E00C
:1009E00090E09A8789873FC020E03FEF4FE757E4C8
:1009F0006D817E818F8198850E94880618164CF53E
:100A000020E030E040E251E469817A818B819C8171
:100A10000E948C06DC01CB01BC01CD010E940F06B7
:100A2000DC01CB019A8789870FC088EC90E09C8716
:100A30008B878B859C850197F1F79C878B878985B0
:100A40009A8501979A87898789859A85892B69F77D
:100A500014C06D817E818F8198850E940F06DC0114
:100A6000CB019A87898789859A859E878D878D8511
:100A70009E850197F1F79E878D8788E290E028E2B6
:100A800030E0F9012081287FFC01208380E090E0A4
:100A9000A6E9B3E48F87988BA98BBA8B20E030E06E
:100AA0004AEF54E46F85788989899A890E948C0677
:100AB000DC01CB018B8B9C8BAD8BBE8B20E030E0BF
:100AC00040E85FE36B897C898D899E890E940B06D3
:100AD00088232CF481E090E0988F8F8B3FC020E03A
:100AE0003FEF4FE757E46B897C898D899E890E948F
:100AF000880618164CF520E030E040E251E46F859E
:100B0000788989899A890E948C06DC01CB01BC0115
:100B1000CD010E940F06DC01CB01988F8F8B0FC097
:100B200088EC90E09A8F898F898D9A8D0197F1F7E3
:100B30009A8F898F8F89988D0197988F8F8B8F8946
:100B4000988D892B69F714C06B897C898D899E8962
:100B50000E940F06DC01CB01988F8F8B8F89988DB7
:100B60009C8F8B8F8B8D9C8D0197F1F79C8F8B8F3A
:100B70006C960FB6F894DEBF0FBECDBFDF91CF915C
:100B80000895CF93DF93CDB7DEB72A970FB6F894C9
:100B9000DEBF0FBECDBF98878F831A8219821B825A
:100BA0001C821D821E8288E290E028E230E0F9017A
:100BB00020812260FC01208384E697E09A83898368
:100BC0002AE830E089819A814EEB50E0BA010E9418
:100BD0001707CB01BC014F815885649FC001659FF9
:100BE000900D749F900D11248F559F4FF9019183A3
:100BF000808388E290E028E230E0F90120812D7FB7
:100C0000FC0120832A960FB6F894DEBF0FBECDBF3D
:100C1000DF91CF9108952FD008F481E0089557D047
:100C200088F09F5790F0B92F9927B751A0F0D1F0D5
:100C3000660F771F881F991F1AF0BA95C9F712C05F
:100C4000B13081F05ED0B1E008955BC0672F782F9E
:100C50008827B85F39F0B93FCCF3869577956795CB
:100C6000B395D9F73EF490958095709561957F4F37
:100C70008F4F9F4F0895990F0008550FAA0BE0E87A
:100C8000FEEF16161706E807F907C0F0121613064E
:100C9000E407F50798F0621B730B840B950B39F48E
:100CA0000A2661F0232B242B252B21F408950A26F4
:100CB00009F4A140A6958FEF811D811D089557FD70
:100CC0009058440F551F59F05F3F71F04795880FBA
:100CD00097FB991F61F09F3F79F087950895121651
:100CE00013061406551FF2CF4695F1DF08C01616FD
:100CF00017061806991FF1CF8695710561050894AE
:100D00000895E894BB2766277727CB0197F90895C4
:100D1000B2DF08F48FEF08950BD078C069D028F0C7
:100D20006ED018F0952309F05AC05FC01124EACFA5
:100D3000C6DFA0F3959FD1F3950F50E0551F629F3A
:100D4000F001729FBB27F00DB11D639FAA27F00D24
:100D5000B11DAA1F649F6627B00DA11D661F829F4B
:100D60002227B00DA11D621F739FB00DA11D621F30
:100D7000839FA00D611D221F749F3327A00D611D4D
:100D8000231F849F600D211D822F762F6A2F11242F
:100D90009F5750408AF0E1F088234AF0EE0FFF1F82
:100DA000BB1F661F771F881F91505040A9F79E3FB9
:100DB000510570F014C0A6CF5F3FECF3983EDCF312
:100DC000869577956795B795F795E7959F5FC1F7F6
:100DD000FE2B880F911D9695879597F9089597F9A1
:100DE0009F6780E870E060E008959FEF80EC0895D1
:100DF00000240A94161617061806090608950024FA
:100E00000A9412161306140605060895092E039473
:100E1000000C11F4882352F0BB0F40F4BF2B11F4E7
:100E200060FF04C06F5F7F4F8F4F9F4F089597FB08
:100E3000072E16F4009407D077FD09D00E942B07E7
:100E400007FC05D03EF4909581959F4F08957095CD
:100E500061957F4F0895AA1BBB1B51E107C0AA1FD4
:100E6000BB1FA617B70710F0A61BB70B881F991F4B
:100E70005A95A9F780959095BC01CD010895F894F5
:020E8000FFCFA2
:00000001FF
