S01E0000454E455247595F4D414E4147454D454E545F56305F312E737265638B
S11300000C9434000C943E000C943E000C943E007E
S11300100C943E000C943E000C943E000C943E0064
S11300200C943E000C943E000C943E000C943E0054
S11300300C943E000C943E000C943E000C943E0044
S11300400C943E000C943E000C943E000C943E0034
S11300500C943E000C943E000C943E000C943E0024
S11300600C943E000C943E0011241FBECFEFD8E048
S1130070DEBFCDBF0E9444040C94DF070C94000043
S1130080CF93DF93CDB7DEB78AE290E02AE230E087
S1130090F90120812061FC01208384E290E024E2C4
S11300A030E0F90120812160FC012083DF91CF91B0
S11300B00895CF93DF9300D000D0CDB7DEB79C83F3
S11300C08B838CE790E0FC0110828AE790E0FC01CE
S11300D010828CE790E02CE730E0F9012081206465
S11300E0FC0120838B819C819A8389838CE790E037
S11300F02CE730E0F9012081322F2981232BFC01E8
S113010020838AE790E02AE730E0F9012081236A1E
S1130110FC0120838AE790E02AE730E0F90120819E
S11301202064FC0120830F900F900F900F90DF91BB
S1130130CF910895CF93DF9300D0CDB7DEB71A8265
S1130140198288E790E0FC018081282F30E089E75C
S113015090E0FC018081882F90E0982F8827820FFF
S1130160931F9A83898389819A810F900F90DF91DD
S1130170CF910895CF93DF93CDB7DEB762970FB6D3
S1130180F894DEBF0FBECDBF80E090E00E9459001E
S113019080E090E0A8ECB2E48D839E83AF83B887BF
S11301A020E030E04AEF54E46D817E818F819885B0
S11301B00E947207DC01CB0189879A87AB87BC87D1
S11301C020E030E040E85FE369857A858B859C8593
S11301D00E94150688232CF481E090E09E878D8789
S11301E03FC020E03FEF4FE757E469857A858B8570
S11301F09C850E946D0718164CF520E030E040E223
S113020051E46D817E818F8198850E947207DC01A3
S1130210CB01BC01CD010E948C06DC01CB019E8781
S11302208D870FC088EC90E0988B8F878F85988995
S11302300197F1F7988B8F878D859E8501979E870F
S11302408D878D859E85892B69F714C069857A858C
S11302508B859C850E948C06DC01CB019E878D8753
S11302608D859E859A8B898B89899A890197F1F767
S11302709A8B898B0E949A00092E000CAA0BBB0B47
S1130280BC01CD010E94BD06DC01CB0120E030ECB5
S11302904FE754E4BC01CD010E941A06DC01CB01F6
S11302A023E333E343E550E4BC01CD010E9472072C
S11302B0DC01CB0189839A83AB83BC8320E030E0EB
S11302C040E250E469817A818B819C810E941A0604
S11302D0DC01CB0126E636E646EA50E4BC01CD015A
S11302E00E947207DC01CB0189839A83AB83BC83B0
S11302F089819A81AB81BC81BC01CD0162960FB624
S1130300F894DEBF0FBECDBFDF91CF910895CF9398
S1130310DF93CDB7DEB762970FB6F894DEBF0FBE9A
S1130320CDBF81E090E00E94590080E090E0A8EC0D
S1130330B2E48D839E83AF83B88720E030E04AEF38
S113034054E46D817E818F8198850E947207DC015F
S1130350CB0189879A87AB87BC8720E030E040E8EF
S11303605FE369857A858B859C850E9415068823C1
S11303702CF481E090E09E878D873FC020E03FEF22
S11303804FE757E469857A858B859C850E946D07C4
S113039018164CF520E030E040E251E46D817E8196
S11303A08F8198850E947207DC01CB01BC01CD01CD
S11303B00E948C06DC01CB019E878D870FC088ECE0
S11303C090E0988B8F878F8598890197F1F7988BA8
S11303D08F878D859E8501979E878D878D859E85C8
S11303E0892B69F714C069857A858B859C850E9461
S11303F08C06DC01CB019E878D878D859E859A8B2B
S1130400898B89899A890197F1F79A8B898B0E9444
S11304109A00092E000CAA0BBB0BBC01CD010E9453
S1130420BD06DC01CB0120E030EC4FE754E4BC0115
S1130430CD010E941A06DC01CB0123E333E343E53B
S113044050E4BC01CD010E947207DC01CB01898319
S11304509A83AB83BC8320E030E040E250E46981BE
S11304607A818B819C810E941A06DC01CB012AE9E6
S113047039E949E550E4BC01CD010E947207DC0171
S1130480CB0189839A83AB83BC8389819A81AB81B5
S1130490BC81BC01CD0162960FB6F894DEBF0FBEDD
S11304A0CDBFDF91CF910895CF93DF93CDB7DEB762
S11304B062970FB6F894DEBF0FBECDBF82E090E026
S11304C00E94590080E090E0A8ECB2E48D839E8302
S11304D0AF83B88720E030E04AEF54E46D817E8139
S11304E08F8198850E947207DC01CB0189879A87E6
S11304F0AB87BC8720E030E040E85FE369857A851C
S11305008B859C850E94150688232CF481E090E05D
S11305109E878D873FC020E03FEF4FE757E4698512
S11305207A858B859C850E946D0718164CF520E012
S113053030E040E251E46D817E818F8198850E9494
S11305407207DC01CB01BC01CD010E948C06DC01E9
S1130550CB019E878D870FC088EC90E0988B8F87A6
S11305608F8598890197F1F7988B8F878D859E8564
S113057001979E878D878D859E85892B69F714C089
S113058069857A858B859C850E948C06DC01CB016C
S11305909E878D878D859E859A8B898B89899A897B
S11305A00197F1F79A8B898B0E949A00092E000C0F
S11305B0AA0BBB0BBC01CD010E94BD06DC01CB0123
S11305C020E030EC4FE754E4BC01CD010E941A0650
S11305D0DC01CB0123E333E343E550E4BC01CD016B
S11305E00E947207DC01CB0189839A83AB83BC83AD
S11305F020E030E040E250E469817A818B819C8183
S11306000E941A06DC01CB0120E030E0A901BC0104
S1130610CD010E947207DC01CB0189839A83AB83ED
S1130620BC8389819A81AB81BC81BC01CD01629676
S11306300FB6F894DEBF0FBECDBFDF91CF91089502
S1130640CF93DF93CDB7DEB762970FB6F894DEBFD2
S11306500FBECDBF83E090E00E94590080E090E09F
S1130660A8ECB2E48D839E83AF83B88720E030E0AA
S11306704AEF54E46D817E818F8198850E947207D0
S1130680DC01CB0189879A87AB87BC8720E030E007
S113069040E85FE369857A858B859C850E94150611
S11306A088232CF481E090E09E878D873FC020E072
S11306B03FEF4FE757E469857A858B859C850E94D7
S11306C06D0718164CF520E030E040E251E46D81EE
S11306D07E818F8198850E947207DC01CB01BC0169
S11306E0CD010E948C06DC01CB019E878D870FC053
S11306F088EC90E0988B8F878F8598890197F1F724
S1130700988B8F878D859E8501979E878D878D8594
S11307109E85892B69F714C069857A858B859C85AC
S11307200E948C06DC01CB019E878D878D859E857A
S11307309A8B898B89899A890197F1F79A8B898B8E
S11307400E949A00092E000CAA0BBB0BBC01CD0120
S11307500E94BD06DC01CB0120E030EC4FE754E4FD
S1130760BC01CD010E941A06DC01CB0123E333E373
S113077043E550E4BC01CD010E947207DC01CB01CA
S113078089839A83AB83BC8320E030E040E250E469
S113079069817A818B819C810E941A06DC01CB01DC
S11307A026E636E646E451E4BC01CD010E94720718
S11307B0DC01CB0189839A83AB83BC8389819A81D1
S11307C0AB81BC81BC01CD0162960FB6F894DEBF4B
S11307D00FBECDBFDF91CF910895CF93DF931F92CA
S11307E0CDB7DEB789838981813051F48BE290E003
S11307F02BE230E0F90120812F7EFC0120830CC024
S11308008981882349F48BE290E02BE230E0F901FE
S113081020812061FC0120830F90DF91CF91089506
S1130820CF93DF931F92CDB7DEB78983898181305F
S113083051F485E290E025E230E0F9012081216065
S1130840FC0120830CC08981882349F485E290E06F
S113085025E230E0F90120812E7FFC0120830F90F6
S1130860DF91CF910895CF93DF93CDB7DEB78AEBB5
S113087090E024E1FC0120838CEB90E024E4FC0173
S11308802083DF91CF910895CF93DF93CDB7DEB767
S1130890E6970FB6F894DEBF0FBECDBF0E944000AE
S11308A081E08B8381E08C831D821E821F821886E7
S11308B019861A861B861C861D861E861F86188A24
S11308C0198A1A8A1B8A1C8A1A8219821E8A1D8A0C
S11308D08AE290E02AE230E0F9012081206EFC01F6
S11308E020830E94BA00DC01CB018D839E83AF83F9
S11308F0B8870E948701DC01CB0189879A87AB877F
S1130900BC870E945402DC01CB018D879E87AF8790
S1130910B88B0E942003DC01CB01898B9A8BAB8BB3
S1130920BC8B20E030E040E351E469897A898B890B
S11309309C890E941506882324F480E00E94ED031C
S113094073C181E00E94ED038C810E9410040E9417
S1130950330489EB90E0FC018081882F90E080389B
S1130960910509F4C1C0803A910509F453C1803658
S1130970910509F059C18CEB90E02CEB30E0F901C2
S11309802081206CFC012083A7C089819A81019673
S11309909A83898389EB90E0FC018081803851F54A
S11309A08BEB90E0FC018081882F90E09CAB8BABBB
S11309B08CEB90E02CEB30E0F9012081206CFC0101
S11309C0208389EB90E0FC018081803891F48BEBEB
S11309D090E0FC018081882F90E09EAB8DAB8CEB86
S11309E090E02CEB30E0F9012081206CFC012083A5
S11309F078C077C080E090E0A8ECB2E48F8B988F49
S1130A00A98FBA8F20E030E04AEF54E46F89788DE3
S1130A10898D9A8D0E947207DC01CB018B8F9C8F8C
S1130A20AD8FBE8F20E030E040E85FE36B8D7C8DBE
S1130A308D8D9E8D0E94150688232CF481E090E014
S1130A4098A38F8F3FC020E03FEF4FE757E46B8DB3
S1130A507C8D8D8D9E8D0E946D0718164CF520E0BF
S1130A6030E040E251E46F89788D898D9A8D0E943F
S1130A707207DC01CB01BC01CD010E948C06DC01B4
S1130A80CB0198A38F8F0FC088EC90E09AA389A321
S1130A9089A19AA10197F1F79AA389A38F8D98A1AF
S1130AA0019798A38F8F8F8D98A1892B69F714C014
S1130AB06B8D7C8D8D8D9E8D0E948C06DC01CB010F
S1130AC098A38F8F8F8D98A19CA38BA38BA19CA19E
S1130AD00197F1F79CA38BA389819A8105970CF464
S1130AE054CF1A821982A0C08BEB90E0FC01808164
S1130AF0882F90E09E8B8D8B8CEB90E02CEB30E07C
S1130B00F9012081206CFC0120838BE290E02BE230
S1130B1030E0F9012081206EFC01208380E090E028
S1130B20A8E4B2E48DA39EA3AFA3B8A720E030E06D
S1130B304AEF54E46DA17EA18FA198A50E9472078B
S1130B40DC01CB0189A79AA7ABA7BCA720E030E0C2
S1130B5040E85FE369A57AA58BA59CA50E941506CC
S1130B6088232CF481E090E09EA78DA73FC020E06D
S1130B703FEF4FE757E469A57AA58BA59CA50E9492
S1130B806D0718164CF520E030E040E251E46DA109
S1130B907EA18FA198A50E947207DC01CB01BC0144
S1130BA0CD010E948C06DC01CB019EA78DA70FC04E
S1130BB088EC90E098AB8FA78FA598A90197F1F7DF
S1130BC098AB8FA78DA59EA501979EA78DA78DA5F0
S1130BD09EA5892B69F714C069A57AA58BA59CA548
S1130BE00E948C06DC01CB019EA78DA78DA59EA536
S1130BF09AAB89AB89A99AA90197F1F79AAB89AB0A
S1130C008BE290E02BE230E0F90120812F71FC01AE
S1130C1020830AC08CEB90E02CEB30E0F9012081BA
S1130C202068FC01208300005CCE0E94F80608F4D2
S1130C3081E008950E942E060C9433070E942C072D
S1130C4058F00E94250740F029F45F3F29F00C94E6
S1130C501C0751110C9467070C9422070E94440747
S1130C6068F39923B1F3552391F3951B550BBB27D7
S1130C70AA2762177307840738F09F5F5F4F220F1C
S1130C80331F441FAA1FA9F335D00E2E3AF0E0E813
S1130C9032D091505040E695001CCAF72BD0FE2F5D
S1130CA029D0660F771F881FBB1F261737074807F1
S1130CB0AB07B0E809F0BB0B802DBF01FF279358A9
S1130CC05F4F3AF09E3F510578F00C941C070C944A
S1130CD067075F3FE4F3983ED4F38695779567956D
S1130CE0B795F7959F5FC9F7880F911D96958795DE
S1130CF097F90895E1E0660F771F881FBB1F6217FD
S1130D0073078407BA0720F0621B730B840BBA0BBA
S1130D10EE1F88F7E09508950E944C0788F09F57CE
S1130D2098F0B92F9927B751B0F0E1F0660F771F0B
S1130D30881F991F1AF0BA95C9F714C0B13091F001
S1130D400E946607B1E008950C946607672F782F18
S1130D508827B85F39F0B93FCCF3869577956795C6
S1130D60B395D9F73EF490958095709561957F4F32
S1130D708F4F9F4F0895E89409C097FB3EF49095D8
S1130D808095709561957F4F8F4F9F4F9923A9F060
S1130D90F92F96E9BB279395F695879577956795EF
S1130DA0B795F111F8CFFAF4BB0F11F460FF1BC033
S1130DB06F5F7F4F8F4F9F4F16C0882311F096E9C6
S1130DC011C0772321F09EE8872F762F05C0662374
S1130DD071F096E8862F70E060E02AF09A95660F2D
S1130DE0771F881FDAF7880F9695879597F90895E6
S1130DF0990F0008550FAA0BE0E8FEEF1616170628
S1130E00E807F907C0F012161306E407F50798F08F
S1130E10621B730B840B950B39F40A2661F0232BA8
S1130E20242B252B21F408950A2609F4A140A69524
S1130E308FEF811D811D089597F99F6780E870E009
S1130E4060E008959FEF80EC089500240A9416163C
S1130E50170618060906089500240A9412161306A4
S1130E60140605060895092E0394000C11F4882332
S1130E7052F0BB0F40F4BF2B11F460FF04C06F5F4E
S1130E807F4F8F4F9F4F089557FD9058440F551F24
S1130E9059F05F3F71F04795880F97FB991F61F0F8
S1130EA09F3F79F087950895121613061406551F6F
S1130EB0F2CF4695F1DF08C0161617061806991FDB
S1130EC0F1CF86957105610508940895E894BB27D0
S1130ED066277727CB0197F908950E94F80608F44E
S1130EE08FEF08950E9485070C9433070E9425070D
S1130EF038F00E942C0720F0952311F00C941C0765
S1130F000C94220711240C9467070E94440770F381
S1130F10959FC1F3950F50E0551F629FF001729F9A
S1130F20BB27F00DB11D639FAA27F00DB11DAA1FA9
S1130F30649F6627B00DA11D661F829F2227B00DF6
S1130F40A11D621F739FB00DA11D621F839FA00D81
S1130F50611D221F749F3327A00D611D231F849FD1
S1130F60600D211D822F762F6A2F11249F57504028
S1130F709AF0F1F088234AF0EE0FFF1FBB1F661FA3
S1130F80771F881F91505040A9F79E3F510580F06C
S1130F900C941C070C9467075F3FE4F3983ED4F36A
S1130FA0869577956795B795F795E7959F5FC1F710
S1130FB0FE2B880F911D9695879597F90895F894BF
S1050FC0FFCF5D
S9030000FC
