:100000000C9434000C943E000C943E000C943E0082
:100010000C943E000C943E000C943E000C943E0068
:100020000C943E000C943E000C943E000C943E0058
:100030000C943E000C943E000C943E000C943E0048
:100040000C943E000C943E000C943E000C943E0038
:100050000C943E000C943E000C943E000C943E0028
:100060000C943E000C943E0011241FBECFEFD8E04C
:10007000DEBFCDBF0E9433040C94D1060C94000067
:10008000CF93DF93CDB7DEB78AE290E02AE230E08B
:10009000F90120812061FC01208384E290E024E2C8
:1000A00030E0F90120812160FC012083DF91CF91B4
:1000B0000895CF93DF9300D000D0CDB7DEB79C83F7
:1000C0008B838CE790E0FC0110828AE790E0FC01D2
:1000D00010828CE790E02CE730E0F9012081206469
:1000E000FC0120838B819C819A8389838CE790E03B
:1000F0002CE730E0F9012081322F2981232BFC01EC
:1001000020838AE790E02AE730E0F9012081236A22
:10011000FC0120838AE790E02AE730E0F9012081A2
:100120002064FC0120830F900F900F900F90DF91BF
:10013000CF910895CF93DF9300D0CDB7DEB71A8269
:10014000198288E790E0FC018081282F30E089E760
:1001500090E0FC018081882F90E0982F8827820F03
:10016000931F9A83898389819A810F900F90DF91E1
:10017000CF910895CF93DF93CDB7DEB762970FB6D7
:10018000F894DEBF0FBECDBF80E090E00E94590022
:1001900080E090E0A8ECB2E48D839E83AF83B887C3
:1001A00020E030E04AEF54E46D817E818F819885B4
:1001B0000E946E06DC01CB0189879A87AB87BC87DA
:1001C00020E030E040E85FE369857A858B859C8597
:1001D0000E94200588232CF481E090E09E878D8783
:1001E0003FC020E03FEF4FE757E469857A858B8574
:1001F0009C850E946A0618164CF520E030E040E22B
:1002000051E46D817E818F8198850E946E06DC01AC
:10021000CB01BC01CD010E948C05DC01CB019E8786
:100220008D870FC088EC90E0988B8F878F85988999
:100230000197F1F7988B8F878D859E8501979E8713
:100240008D878D859E85009769F714C069857A85AD
:100250008B859C850E948C05DC01CB019E878D8758
:100260008D859E859A8B898B89899A890197F1F76B
:100270009A8B898B0E949A00AA2797FDA095BA2F86
:10028000BC01CD010E94BA05DC01CB0120E030ECBD
:100290004FE754E4BC01CD010E942405DC01CB01F1
:1002A00023E333E343E550E4BC01CD010E946E0635
:1002B000DC01CB0189839A83AB83BC8320E030E0EF
:1002C00040E250E469817A818B819C810E942405FF
:1002D000DC01CB0126E636E646EA50E4BC01CD015E
:1002E0000E946E06DC01CB0189839A83AB83BC83B9
:1002F00089819A81AB81BC81BC01CD0162960FB628
:10030000F894DEBF0FBECDBFDF91CF910895CF939C
:10031000DF93CDB7DEB762970FB6F894DEBF0FBE9E
:10032000CDBF81E090E00E94590080E090E0A8EC11
:10033000B2E48D839E83AF83B88720E030E04AEF3C
:1003400054E46D817E818F8198850E946E06DC0168
:10035000CB0189879A87AB87BC8720E030E040E8F3
:100360005FE369857A858B859C850E9420058823BB
:100370002CF481E090E09E878D873FC020E03FEF26
:100380004FE757E469857A858B859C850E946A06CC
:1003900018164CF520E030E040E251E46D817E819A
:1003A0008F8198850E946E06DC01CB01BC01CD01D6
:1003B0000E948C05DC01CB019E878D870FC088ECE5
:1003C00090E0988B8F878F8598890197F1F7988BAC
:1003D0008F878D859E8501979E878D878D859E85CC
:1003E000009769F714C069857A858B859C850E9482
:1003F0008C05DC01CB019E878D878D859E859A8B30
:10040000898B89899A890197F1F79A8B898B0E9448
:100410009A00AA2797FDA095BA2FBC01CD010E9492
:10042000BA05DC01CB0120E030EC4FE754E4BC011D
:10043000CD010E942405DC01CB0123E333E343E536
:1004400050E4BC01CD010E946E06DC01CB01898322
:100450009A83AB83BC8320E030E040E250E46981C2
:100460007A818B819C810E942405DC01CB012AE9E1
:1004700039E949E550E4BC01CD010E946E06DC017A
:10048000CB0189839A83AB83BC8389819A81AB81B9
:10049000BC81BC01CD0162960FB6F894DEBF0FBEE1
:1004A000CDBFDF91CF910895CF93DF93CDB7DEB766
:1004B00062970FB6F894DEBF0FBECDBF82E090E02A
:1004C0000E94590080E090E0A8ECB2E48D839E8306
:1004D000AF83B88720E030E04AEF54E46D817E813D
:1004E0008F8198850E946E06DC01CB0189879A87EF
:1004F000AB87BC8720E030E040E85FE369857A8520
:100500008B859C850E94200588232CF481E090E057
:100510009E878D873FC020E03FEF4FE757E4698516
:100520007A858B859C850E946A0618164CF520E01A
:1005300030E040E251E46D817E818F8198850E9498
:100540006E06DC01CB01BC01CD010E948C05DC01F3
:10055000CB019E878D870FC088EC90E0988B8F87AA
:100560008F8598890197F1F7988B8F878D859E8568
:1005700001979E878D878D859E85009769F714C0AA
:1005800069857A858B859C850E948C05DC01CB0171
:100590009E878D878D859E859A8B898B89899A897F
:1005A0000197F1F79A8B898B0E949A00AA2797FDF1
:1005B000A095BA2FBC01CD010E94BA05DC01CB0188
:1005C00020E030EC4FE754E4BC01CD010E9424054B
:1005D000DC01CB0123E333E343E550E4BC01CD016F
:1005E0000E946E06DC01CB0189839A83AB83BC83B6
:1005F00020E030E040E250E469817A818B819C8187
:100600000E942405DC01CB0120E030E0A901BC01FF
:10061000CD010E946E06DC01CB0189839A83AB83F6
:10062000BC8389819A81AB81BC81BC01CD0162967A
:100630000FB6F894DEBF0FBECDBFDF91CF91089506
:10064000CF93DF93CDB7DEB762970FB6F894DEBFD6
:100650000FBECDBF83E090E00E94590080E090E0A3
:10066000A8ECB2E48D839E83AF83B88720E030E0AE
:100670004AEF54E46D817E818F8198850E946E06D9
:10068000DC01CB0189879A87AB87BC8720E030E00B
:1006900040E85FE369857A858B859C850E9420050B
:1006A00088232CF481E090E09E878D873FC020E076
:1006B0003FEF4FE757E469857A858B859C850E94DB
:1006C0006A0618164CF520E030E040E251E46D81F6
:1006D0007E818F8198850E946E06DC01CB01BC0172
:1006E000CD010E948C05DC01CB019E878D870FC058
:1006F00088EC90E0988B8F878F8598890197F1F728
:10070000988B8F878D859E8501979E878D878D8598
:100710009E85009769F714C069857A858B859C85CD
:100720000E948C05DC01CB019E878D878D859E857F
:100730009A8B898B89899A890197F1F79A8B898B92
:100740000E949A00AA2797FDA095BA2FBC01CD015F
:100750000E94BA05DC01CB0120E030EC4FE754E405
:10076000BC01CD010E942405DC01CB0123E333E36E
:1007700043E550E4BC01CD010E946E06DC01CB01D3
:1007800089839A83AB83BC8320E030E040E250E46D
:1007900069817A818B819C810E942405DC01CB01D7
:1007A00026E636E646E451E4BC01CD010E946E0621
:1007B000DC01CB0189839A83AB83BC8389819A81D5
:1007C000AB81BC81BC01CD0162960FB6F894DEBF4F
:1007D0000FBECDBFDF91CF910895CF93DF931F92CE
:1007E000CDB7DEB789838981813051F48BE290E007
:1007F0002BE230E0F90120812F7EFC0120830CC028
:100800008981882349F48BE290E02BE230E0F90102
:1008100020812061FC0120830F90DF91CF9108950A
:10082000CF93DF931F92CDB7DEB789838981813063
:1008300051F485E290E025E230E0F9012081216069
:10084000FC0120830CC08981882349F485E290E073
:1008500025E230E0F90120812E7FFC0120830F90FA
:10086000DF91CF910895CF93DF93CDB7DEB76C972B
:100870000FB6F894DEBF0FBECDBF0E94400081E0EE
:10088000898381E08A831B821C821D821E821F82D3
:10089000188619861A861B861C861D861E861F864C
:1008A000188A198A1A8A1C8A1B8A8AEB90E024E12A
:1008B000FC0120838CEB90E024E4FC0120838AEB94
:1008C00090E0FC018081882F90E09C8B8B8B1E8AAE
:1008D0001D8A89810E94ED038A810E9410040E9472
:1008E000BA00DC01CB018B839C83AD83BE830E9465
:1008F0008701DC01CB018F839887A987BA870E9483
:100900005402DC01CB018B879C87AD87BE870E9498
:100910002003DC01CB018F87988BA98BBA8B8BEBE3
:1009200090E0FC018081882F90E0988F8F8B89EB7D
:1009300090E0FC018081882F90E09A8F898F8BEB6B
:1009400090E0FC018081882F90E0988F8F8B8AEB5C
:1009500090E0FC018081882F90E09C8F8B8F8AEB48
:1009600090E0FC018081882F90E09C8F8B8F89EB39
:1009700090E0FC018081882F90E08038910541F162
:10098000813891053CF480369105C1F0803791059E
:1009900059F04CC0893B9105B9F18F3F9105E9F1C0
:1009A000803A910539F142C08CEB90E02CEB30E0BD
:1009B000F90120812068FC01208341C08CEB90E08C
:1009C0002CEB30E0F9012081206CFC01208337C042
:1009D0008BEB90E0FC018081882F90E0988F8F8BCB
:1009E0008CEB90E02CEB30E0F90120812068FC01D9
:1009F000208325C08CEB90E02CEB30E0F9012081C6
:100A00002068FC0120831BC08BEB90E0FC018081FF
:100A1000882F90E09A8F898F12C08BEB90E0FC01B9
:100A20008081882F90E09A8F898F09C08BEB90E0AE
:100A3000FC018081882F90E09A8F898F000049CF38
:100A4000D4D008F481E008950CD00AC102D140F05E
:100A5000F9D030F021F45F3F19F0EBC0511134C1EF
:100A6000EEC00FD198F39923C9F35523B1F3951B29
:100A7000550BBB27AA2762177307840738F09F5FBF
:100A80005F4F220F331F441FAA1FA9F333D00E2E2E
:100A90003AF0E0E830D091505040E695001CCAF79B
:100AA00029D0FE2F27D0660F771F881FBB1F261760
:100AB00037074807AB07B0E809F0BB0B802DBF0133
:100AC000FF2793585F4F2AF09E3F510568F0B1C051
:100AD000FBC05F3FECF3983EDCF386957795679516
:100AE000B795F7959F5FC9F7880F911D96958795E4
:100AF00097F90895E1E0660F771F881FBB1F621703
:100B000073078407BA0720F0621B730B840BBA0BC0
:100B1000EE1F88F7E0950895BCD088F09F5790F0BD
:100B2000B92F9927B751A0F0D1F0660F771F881F12
:100B3000991F1AF0BA95C9F712C0B13081F0C3D02D
:100B4000B1E00895C0C0672F782F8827B85F39F0CB
:100B5000B93FCCF3869577956795B395D9F73EF471
:100B600090958095709561957F4F8F4F9F4F089519
:100B7000E89409C097FB3EF4909580957095619537
:100B80007F4F8F4F9F4F9923A9F0F92F96E9BB27ED
:100B90009395F695879577956795B795F111F8CF69
:100BA000FAF4BB0F11F460FF1BC06F5F7F4F8F4FD4
:100BB0009F4F16C0882311F096E911C0772321F0CA
:100BC0009EE8872F762F05C0662371F096E8862F62
:100BD00070E060E02AF09A95660F771F881FDAF7B9
:100BE000880F9695879597F90895990F0008550FE6
:100BF000AA0BE0E8FEEF16161706E807F907C0F0A3
:100C000012161306E407F50798F0621B730B840BAA
:100C1000950B39F40A2661F0232B242B252B21F484
:100C200008950A2609F4A140A6958FEF811D811D24
:100C3000089597F99F6780E870E060E008959FEF5E
:100C400080EC089500240A94161617061806090663
:100C5000089500240A941216130614060506089532
:100C6000092E0394000C11F4882352F0BB0F40F4BA
:100C7000BF2B11F460FF04C06F5F7F4F8F4F9F4FFA
:100C8000089557FD9058440F551F59F05F3F71F07C
:100C90004795880F97FB991F61F09F3F79F08795E3
:100CA0000895121613061406551FF2CF4695F1DF6C
:100CB00008C0161617061806991FF1CF86957105FC
:100CC000610508940895E894BB2766277727CB0130
:100CD00097F908958ADF08F48FEF08950BD0C0CFFD
:100CE000B1DF28F0B6DF18F0952309F0A2CFA7CF27
:100CF0001124EACFC6DFA0F3959FD1F3950F50E002
:100D0000551F629FF001729FBB27F00DB11D639FBD
:100D1000AA27F00DB11DAA1F649F6627B00DA11D63
:100D2000661F829F2227B00DA11D621F739FB00D09
:100D3000A11D621F839FA00D611D221F749F332779
:100D4000A00D611D231F849F600D211D822F762F12
:100D50006A2F11249F5750408AF0E1F088234AF00F
:100D6000EE0FFF1FBB1F661F771F881F915050405B
:100D7000A9F79E3F510570F05CCFA6CF5F3FECF323
:100D8000983EDCF3869577956795B795F795E79547
:100D90009F5FC1F7FE2B880F911D9695879597F958
:060DA0000895F894FFCF56
:00000001FF
