:100000000C9452000C946F000C946F000C946F00D1
:100010000C946F000C946F000C946F000C946F00A4
:100020000C946F000C946F000C946F000C946F0094
:100030000C946F000C946F000C946F000C946F0084
:100040000C946F000C946F000C946F000C946F0074
:100050000C946F000C946F000C946F000C946F0064
:100060000C946F000C946F00E103100439046804D1
:100070009404C304EF041D054C057805AD05D805AF
:10008000FD0526064C0677069D06C506F1061707F0
:1000900048078307A307D7070E084B087C08AF085B
:1000A000DF08170911241FBECFEFD8E0DEBFCDBF98
:1000B00015E0A0E0B1E0E6EAF7E102C005900D929C
:1000C000AA30B107D9F725E0AAE0B5E001C01D923A
:1000D000AC31B207E1F70E949B090C94D10B0C9450
:1000E00000001AB88FEF8BB917B8089584EA80938F
:1000F000BC00ECEBF0E080818823ECF70895CF930F
:10010000DF93D82FC62F0E94760088E78093BB002C
:1001100084E88093BC00ECEBF0E090819923ECF74D
:10012000D093BB0084E88093BC00ECEBF0E08081CE
:100130008823ECF7C093BB0084E88093BC00ECEB11
:10014000F0E080818823ECF784E98093BC00DF91A4
:10015000CF9108958093BB0084E88093BC00ECEBC2
:10016000F0E080818823ECF70895BC0180E090E006
:100170000E947F0008958EEA90E00E94B50088EA10
:1001800090E00E94B5008FE390E00E94B50083EDFF
:1001900090E00E94B50080E090E00E94B50080E40D
:1001A00090E00E94B50080E290E00E94B50080E0FF
:1001B00090E00E94B50081EA90E00E94B50088ECD2
:1001C00090E00E94B5008AED90E00E94B50082E1C7
:1001D00090E00E94B50081E890E00E94B5008FECAD
:1001E00090E00E94B50084EA90E00E94B50086EAA3
:1001F00090E00E94B50085ED90E00E94B50080E897
:1002000090E00E94B50089ED90E00E94B50081EF7A
:1002100090E00E94B5008BED90E00E94B50080E474
:1002200090E00E94B5008DE890E00E94B50084E166
:1002300090E00E94B5008FEA90E00E94B50081E254
:1002400090E00E94B50080E090E00E94B5008FE74A
:1002500090E00E94B50082E290E00E94B50080E04C
:1002600090E00E94B50087E090E00E94B5008AE02F
:100270008093B80008952F923F924F925F926F92B1
:100280007F928F929F92AF92BF92CF92DF92EF9226
:10029000FF920F931F93CF93DF93CDB7DEB76E9787
:1002A0000FB6F894DEBF0FBECDBF082F192F0E94E6
:1002B000760088E790E00E94AA0080E490E00E9427
:1002C000AA00098F1A8F1C8E1B8E00E810E01F8A6F
:1002D000188E9CC098010D8C02C0359527950A9404
:1002E000E2F7E981FA81408150E04223532381E023
:1002F000452B09F480E0F701408150E0422353236D
:10030000452B09F08260F401408150E042235323E1
:10031000452B09F08460F501408150E042235323CE
:10032000452B09F08860F601408150E042235323B9
:10033000452B09F08061F301408150E042235323B3
:10034000452B09F08062F201408150E042235323A3
:10035000452B09F08064F101408150E024233523CE
:10036000232B09F0806890E00E94AA008D8D9E8D5D
:1003700001969E8F8D8F089709F0ACCFCD80DE80DF
:100380009FEFC91AD90AE0E1CE16D10491F1FF8995
:10039000FD83888D8E831601EF81F885EC0DFD1DA0
:1003A000FA83E983ED88FE88EC0CFD1C8B889C8821
:1003B0008C0C9D1CA988BA88AC0CBD1C8F859889B3
:1003C0008C0D9D1D9C838B836D847E846C0C7D1CA9
:1003D0004B845C844C0C5D1CE985FA852E0E3F1E17
:1003E0008D819E819E8F8D8FDE82CD82CB80DC8041
:1003F00071CFEB8DFC8D3196FC8FEB8F898D9A8DB3
:1004000080589F4F9A8F898F389759F1E98DFA8DCF
:10041000F887EF83CF0140969E8B8D8BB096FC8B37
:10042000EB8B898D9A8DC0969A8B898BE98DFA8D8D
:10043000E05CFF4FF88BEF87898D9A8D805B9F4F33
:100440009E878D87E98DFA8DE05AFF4FFC87EB87F9
:10045000898D9A8D80599F4F9A878987C12CD12C7D
:1004600096CF84E98093BC006E960FB6F894DEBFF9
:100470000FBECDBFDF91CF911F910F91FF90EF90F5
:10048000DF90CF90BF90AF909F908F907F906F90B4
:100490005F904F903F902F9008950F931F93CF93AD
:1004A000DF93FB0162327105B0F12FE5DA01A0564E
:1004B000BF4F1E962C931E9790EA1F969C931F97F2
:1004C00050961E962C931E971F969C931F976334ED
:1004D000710578F0A054B1091E962C931E971F96B3
:1004E0009C931F9750961E962C931E971F969C9335
:1004F00031C020E4DA01A059BF4F1E962C931E97FD
:1005000090E21F969C931F9750961E962C931E97D1
:100510001F969C931FC020E4DA01A059BF4F1E967E
:100520002C931E9790E21F969C931F9750961E96B1
:100530002C931E971F969C931F9790961E962C9314
:100540001E971F969C931F9750961E962C931E974E
:100550001F969C9384FF27C098E9DA01A057BE4FED
:100560001B969C931B972CE450961B962C931B97E1
:1005700036E250961B963C931B9767E950961B9664
:100580006C931B97A059BE4F1B966C931B9750966C
:100590001B963C931B9750961B962C931B9750963B
:1005A0001B969C9326C098E1DA01A057BE4F1B967C
:1005B0009C931B972CE050961B962C931B9736E030
:1005C00050961B963C931B9767E850961B966C932E
:1005D0001B97A059BE4F1B966C931B9750961B966A
:1005E0003C931B9750961B962C931B9750961B96EB
:1005F0009C9381FF13C09FEADA01A059BE4F149665
:100600009C931497509614969C9314975096149616
:100610009C931497509614969C9312C09FE2DA0113
:10062000A059BE4F14969C931497509614969C9381
:100630001497509614969C931497509614969C93E6
:1006400082FF13C09FEADA01A05BBC4F14969C9313
:100650001497509614969C931497509614969C93C6
:100660001497509614969C9312C09FE2DA01A05BF7
:10067000BC4F14969C931497509614969C93149781
:10068000509614969C931497509614969C9383FFBF
:1006900023C087E5DA01A05CBD4F16968C931697B0
:1006A000509616968C931697509616968C9316978E
:1006B000509616968C931697509616968C9316977E
:1006C000509616968C931697509616968C9316976E
:1006D000509616968C9322C087E4DA01A05CBD4F39
:1006E00016968C931697509616968C93169750964E
:1006F00016968C931697509616968C93169750963E
:1007000016968C931697509616968C93169750962D
:1007100016968C931697509616968C939F01ADEC77
:10072000BCEC0E94C20B96958795969587959695F9
:1007300087959C01220F331F880F991F880F991FDF
:10074000880F991F820F931FEF01C81BD90BDD275C
:10075000EC1BFD0B9F013695279536952795ABE74A
:10076000B4E10E94C20B9695879564E6689F90015C
:10077000699F300D1124CF01821B930B9C01ADECBE
:10078000BCEC0E94C20B9695879596958795969599
:1007900087958C011127E01BF10B9F01369527955A
:1007A00036952795ABE7B4E10E94C20B96958795E5
:1007B000CA30D10508F0C8C1FE01EC5CFF4F0C94B3
:1007C000BC0B3FE1FA01E05AFF4F338723E824874F
:1007D0006FE37096638724EC248721E77096238764
:1007E00024EE248721E67096238723EE248776E67D
:1007F0007096738720E6248770967387248778E73E
:100800007096738724877096738721EE248770967D
:10081000638722EC24877096338724E8248794C169
:100820002EE1FA01E05AFF4F238733E034877096B8
:10083000238764E0648726E0709623876487709638
:1008400023873487709623871486709623871486AF
:100850007096238714867096238721E024872FE1E2
:100860007096238732E834877096238724E824879C
:100870006BC12FE7FA01E05AFF4F238733E8348733
:100880007096238734EC34877096138634E6348769
:100890007096138633EE34873FE17096338730ECE1
:1008A00034873FE37096338730E8348730E77096BB
:1008B0003387148630E67096338731E0348770963C
:1008C000238732EE34877096238724EE24873CC139
:1008D0002FE7FA01E05AFF4F238733E834877096F9
:1008E000238734EC34877096138634EE3487709601
:1008F000138633EE348767E07096638730EC348775
:100900007096638734877096138630EE34877096BE
:10091000138631EE34877096238732EC34877096D5
:10092000238724E8248710C127E0FA01E05AFF4F0B
:10093000238733E834872FE07096238724E82487C1
:100940006DE170966387248769E3709663873487C7
:1009500031E77096338730E8348761E670966387B5
:1009600034873FE77096338760EE648770963387ED
:1009700031EE348731E07096338762E86487709691
:1009800033872487E1C02FE7FA01E05AFF4F23871E
:1009900033EE34877096238734EE348730E67096D2
:1009A000338764E064877096338763E0648770966A
:1009B000238760E864877096238760EC648770966D
:1009C000138634877096138631E6348770962387B2
:1009D00032EC34877096238724E82487B5C03FE142
:1009E000FA01E05AFF4F338723EE24876FE37096B6
:1009F000638724EE248720E67096238774E074874B
:100A00007096238773E074877FE770967387A0E8FA
:100A1000A4877096738770EC7487709623872487F9
:100A20007096238721E624877096638722EC2487BB
:100A30007096338724E8248787C03FE7FA01E05A9D
:100A4000FF4F338723EE24877096338734EE348745
:100A50007096138634E6348770961386248721E0D7
:100A60007096238730EC348733E07096338730E814
:100A7000348737E07096338714863EE0709633876C
:100A800024872CE17096238722E0248728E1709642
:100A9000238724E0248758C03FE1FA01E05AFF4F42
:100AA000338723E824876FE37096638724EC2487D9
:100AB00020E67096238774E674877096238773E622
:100AC00074877096338770E874877096338774875D
:100AD0007096238724877096238721E62487709653
:100AE000638722EC24877096338724E824872CC000
:100AF0007FE1FA01E05AFF4F738723E824872FE351
:100B00007096238734EC348730E67096338764E63A
:100B100064877096338763E664877096238760EEF8
:100B2000648770967387648770961386348770968F
:100B3000138631E634873FE77096338732EC34878B
:100B40007096238724E824870A30110508F096C19F
:100B5000F801E25CFF4F0C94BC0B71E0FA01E05A23
:100B6000FF4F718768EF6287B3E07096B187ACEF93
:100B7000A28727E070962187CEE1C28736E0709683
:100B80003187C28770963187C6E6C28770963187F3
:100B9000C2877096218736E83287709621872EE8C3
:100BA00022877096B187A28770967187628766C127
:100BB00031E0FA01E05AFF4F318720EE228770962C
:100BC000318722877096118620E6228770961186DB
:100BD00022877096118622877096118622877096DA
:100BE000118622877096118622877096318728EFAA
:100BF000228770963187228741C127E0FA01E05AA7
:100C0000FF4F218768EF6287709621877CEF72879C
:100C10007096118636E0328770961186AEE0A28714
:100C2000A1E07096A187728773E0709671876287E2
:100C3000709621871286709631871286709621876A
:100C40003EEF328770962187328718C127E0FA017C
:100C5000E05AFF4F218768EF6287709621877CEF0B
:100C60007287709611863EE03287709611863287C1
:100C700070961186ACE7A28770961186A28770964F
:100C80001186328770961186328770962187728717
:100C9000709621876287F2C0FA01E05AFF4F1186F1
:100CA00028E722877096118628EF228721E0709628
:100CB000218728ED228723E07096218728E9228763
:100CC00037E07096318728E1228766E07096618769
:100CD0002287709631876EEF6287709631876287C0
:100CE000709611862287709611862287C7C027E0EA
:100CF000FA01E05AFF4F21873EEF32877096218735
:100D0000328736E070963187128670963187128668
:100D10007096218768EF6287709621877CEF7287D3
:100D20007096118632877096118632877096218769
:100D30007287709621876287A1C061E0FA01E05A4C
:100D4000FF4F61872EEF2287A3E07096A18722874D
:100D500026E070962187128670962187128677E0AA
:100D60007096718738EF3287709671877CEF728743
:100D70007096218722877096218722877096A18797
:100D8000728770966187328779C037E0FA01E05A3E
:100D9000FF4F31872EEF228770963187228770961A
:100DA000118626E02287709611862EE022877096A3
:100DB00011862CE122877096118628E3228770968F
:100DC000118620E722877096118620EE228721E087
:100DD0007096218730EC32877096218720E8228731
:100DE0004DC061E0FA01E05AFF4F618738EF32876A
:100DF000A3E07096A1877CEF728726E0709621872A
:100E00002287709621872287709661873287709635
:100E10006187328770962187228770962187228783
:100E20007096A187728770966187328727C0B1E07C
:100E3000FA01E05AFF4FB18768EF628733E070969E
:100E400031877CEF728726E0709621872287709623
:100E50002187228770963187AEEFA2877096B1877F
:100E6000A28770961186228770961186228727E0C6
:100E700070962187728770963187628799278A30AA
:100E8000910508F00CC2FC01E85BFF4F0C94BC0B11
:100E9000FA01E05AFF4F8FE1808791859068918732
:100EA00070969FE390872185206C2187709621E7BB
:100EB00020872185206E2187709621E62087218555
:100EC000206E2187709626E620873185306631872F
:100ED00070962087218520662187709628E72087D5
:100EE000318530663187709620872185206E218775
:100EF000709690879185906C918770968087818598
:100F000080688187CCC18EE1FA01E05AFF4F80876B
:100F10007096808786E0709680877096808770963E
:100F2000808770968087709680877096808770968D
:100F30008FE1808791859068918770968087818501
:100F400080688187ACC1FA01E05AFF4F8FE7808744
:100F5000918590689187709680879185906C918734
:100F6000709610869185906691877096108691850F
:100F7000906E918770969FE190879185906C918794
:100F800070969FE3908791859068918790E770961F
:100F9000908790E670969087709680879185906E86
:100FA0009187709680878185806E818778C1FA01EC
:100FB000E05AFF4F8FE78087918590689187709600
:100FC00080879185906C9187709610869185906E40
:100FD0009187709610869185906E9187709697E0B4
:100FE00090872185206C2187709690879185906CE1
:100FF0009187709610869185906E91877096108675
:101000009185906E9187709680879185906C91877D
:101010007096808781858068818741C1FA01E05A96
:10102000FF4F87E0808781858068818770968FE099
:10103000808781858068818770968DE18087818532
:1010400080688187709689E3808781858068818741
:10105000709681E78087818580688187709681E6B8
:10106000808781858068818770968FE780879185EA
:10107000906E9187709680878185806E818770964B
:1010800081E08087918590689187709680878185BF
:101090008068818704C1FA01E05AFF4F8FE780879B
:1010A0009185906E9187709680879185906E9187DB
:1010B00090E670969087709690877096808791855D
:1010C00090689187709680879185906C91877096D3
:1010D00010869185906691877096108691859066AE
:1010E0009187709680879185906C918770968087A4
:1010F000818580688187D3C0FA01E05AFF4F9FE164
:1011000090878185806E818770962FE32087818507
:10111000806E818780E67096808770968087709653
:101120003FE73087618560686187709630873185D9
:10113000306C318770968087318530663187709644
:101140008087818580668187709620878185806C05
:10115000818770969087818580688187A0C0FA0119
:10116000E05AFF4F8FE780879185906E9187709648
:1011700080878185806E81877096108681858066E4
:101180008187709610868185806E8187709681E058
:1011900080878185806C8187709683E080878185D8
:1011A0008068818787E0709680878EE07096808760
:1011B0008CE17096808788E17096808770C0FA0114
:1011C000E05AFF4F8FE180879185906891877096F4
:1011D0002FE320879185906C9187709690E6908799
:1011E00031853066318770969087318530663187DA
:1011F0007096808731853068318770968087318519
:101200003068318770969087318530663187709667
:101210009087918590669187709620879185906CD4
:1012200091877096808781858068818738C0FA01B0
:10123000E05AFF4F9FE19087818580688187709693
:101240008FE380872185206C2187709620E6208798
:101250003185306631877096208721852066218709
:10126000709680872185206E218770969087918562
:10127000906E918770961086918590669187709692
:10128000108691859066918770969FE790879185EB
:10129000906C918770968087818580688187CA016C
:1012A0000E943B01DF91CF911F910F910895ECE7D0
:1012B000F0E0808180648083EAE7F0E080818768E5
:1012C00080830895ECE7F0E090818F70907F982BF9
:1012D0009083EAE7F0E0808180648083808186FDEE
:1012E000FDCF809178009091790008958093150545
:1012F0008091130580931605809110058093170542
:101300006093180585E195E00E94050B0E944E0A46
:101310008111FCCF0E94560A809314050E944D0B48
:10132000809314050E942A0B8FE39CE90197F1F743
:1013300000C00000089514BC85E085BD16BC7894FB
:101340000E9471000E94030A66E082E00E94C20AC5
:1013500085E091E00E948B0B80E091E00E947A0B87
:101360000E9457090E94BB0089B1809580930F05A8
:1013700096B19095937090930A0520910E05922F47
:101380009095982390930D05382F30952323209323
:101390000C0520910B05922790930B0580930E0569
:1013A00082E00E946209969587959695879580932D
:1013B000100583E00E94620996958795969587951A
:1013C0008093110586E00E9462099695879596950F
:1013D00087958093120587E00E946209969587950C
:1013E00096958795809313056091100570E04AE00B
:1013F00051E080910B050E944D0260910B0580E049
:101400000E947609B1CF0E949B0B80E00E94A10B45
:1014100081E00E94A70B0895FF920F931F93CF9333
:10142000DF93082F80E00E94AD0BC7E0D0E0F12CE5
:1014300010E098010C2E02C0359527950A94E2F72A
:1014400020FF04C081E00E94B30B03C080E00E9433
:10145000B30B81E00E94AD0BFF0C0E94B90B8823F7
:1014600019F08F2D8160F82E80E00E94AD0B21973E
:1014700000F78F2DDF91CF911F910F91FF9008956D
:10148000CF9380E00E94A70B8FEF0E940C0AC82F19
:1014900081E00E94A70B8C2FCF9108950E94400AF3
:1014A000982F907381E009F080E008950E94400A2F
:1014B00085FD04C084FF04C081E0089580E00895A4
:1014C0008FEF0895EF92FF920F931F93CF93DF93C7
:1014D000E42E442371F0082F192FC62FD72FF12C9B
:1014E000F80181918F010E940C0A8993F394FE10F8
:1014F000F7CFDF91CF911F910F91FF90EF9008955B
:101500000F931F93CF93DF93062F662349F0C82FC5
:10151000D92F10E089910E940C0A1F5F1013FACF97
:10152000DF91CF911F910F910895CF93DF93D82F23
:10153000C62F80E00E94A70B8D2F8F7180620E94C2
:101540000C0A8C2F0E940C0A81E00E94A70BDF91ED
:10155000CF91089580E00E94A70B82EE0E940C0AB2
:1015600081E00E94A70B60E787E00E94950A80E077
:101570000E94A10B6BE080E00E94950A81E00E942E
:10158000A10B089560931B05682F85E00E94950AC2
:1015900060E081E10E94950A60911B0582E10E9452
:1015A000950A60E083E10E94950A60E084E10E9470
:1015B000950A60E085E10E94950A60E086E10E945C
:1015C000950A66E086E00E94950A68E080E00E9445
:1015D000950A63E081E00E94950A63E082E00E9440
:1015E000950A6FE484E00E94950A60E08CE10E9415
:1015F000950A0E94AA0A089560E787E00E94950A6A
:101600006AE080E00E94950A0895CF93DF93EC0191
:1016100080E00E94A10B0E94FC0A80E00E94A70BC0
:1016200081EE0E940C0A81E00E94A70B80E00E94DC
:10163000A70B80EA0E940C0A60911B05CE010E9454
:10164000800A81E00E94A70B81E00E94A10BDF913C
:10165000CF91089580E00E94A10B68E080E00E9495
:10166000950A08950F931F93CF93DF93082FEB01F3
:10167000142F80E00E94A70B802F8F710E940C0A0C
:10168000412FBE01CE010E94620A81E00E94A70B99
:10169000DF91CF911F910F910895CF93DF931F9208
:1016A000CDB7DEB741E0BE016F5F7F4F88E00E949B
:1016B000320B89818F700F90DF91CF9108950F9336
:1016C0001F93CF93DF93082FEB01142F80E00E942C
:1016D000A70B802F8F7180620E940C0A612FCE01B0
:1016E0000E94800A81E00E94A70BDF91CF911F9199
:1016F0000F910895CF93DF93EC0180E00E94A10B3E
:1017000045E0BE018BE00E945F0B81E00E94A10BCF
:10171000DF91CF910895CF93DF93EC0145E0BC01B9
:101720008AE00E945F0B45E0BE0180E10E945F0BF2
:10173000DF91CF910895209A219A259A239A24988F
:101740000895882311F0289A0895289808958823E9
:1017500011F0299A089529980895882311F02D9A57
:1017600008952D980895882311F02B9A08952B98A9
:10177000089583B180710895EE0FFF1F0590F491D5
:10178000E02D0994A29FB001B39FC001A39F700DEB
:10179000811D1124911DB29F700D811D1124911D79
:0617A0000895F894FFCF4C
:1017A600D7D7D7D7D7E7E7E7E7E70000000000007D
:1017B6000000000000000000000000000000000023
:1017C6000000000000000000000000000000000013
:1017D6000000000000000000000000000000000003
:1017E60000000000000000000000004002000000B1
:1017F60000000000000000000F0000C00300000011
:1018060000000000000000007FE00184218000004D
:1018160000000000000003024020018C318000001F
:1018260000000000000004844020031818C00000D7
:1018360000000000000004884020031818C00000C3
:101846000000000000000310402006318C600000FC
:101856000000000000000020402006318C600000DF
:1018660000000000000000404020031818C00000DF
:10187600000000000000008C4020031818C0000083
:1018860000000000000001125FA0018C3180000002
:1018960000000000000002125FA001842180000009
:1018A600000000000000040C402000C003000000FF
:1018B60000000000000000007FE000400200000081
:1018C6000000000000000000000000000000000012
:1018D600000000000000000000000000000007FFFC
:1018E6008000003FFC0000000000000000000FFF29
:1018F600C000007FFE000000000000000001CFFFD6
:10190600C000007FFE0000000000000000022FFF64
:10191600FFFFFFFFFF8000000000000000022FFF16
:10192600FFFFFFFFFFE000000000000000022FFFA6
:10193600FFFFFFFFFE3000000000000000022FFF47
:10194600FF8007FFFE1800000000000000022FFFC6
:10195600FF0007FFFE0C00000000000000022FFF42
:10196600FE000FFFFF060000000000000001CFFF91
:10197600FC001FC0FF8700000000000000000FFFF2
:10198600FC003F807FC780000000000000003F8011
:101996007E003F003FFFC0000000000000007F0007
:1019A6007FFFFE001FFFC000000000000000FF00D8
:1019B6003FFFFC001FFFC000000000000000FF000A
:1019C6003FFFF8001FFFC000000000000000FF00FE
:1019D6006FFFF0001FFFC000000000000000FF00C6
:1019E60047FFF0001FFFC000000000000000FF00DE
:1019F60047FFF0001FFFC000000000000000FF00CE
:101A060047FFF0001FFFC000000000000000FF00BD
:101A160047FFF0001FFFC000000000000000FF00AD
:101A260047FFF0001FFFC000000000000000FF009D
:101A360047FFF0001FFFC000000000000000FF008D
:101A460047FFF0001FFFC000000000000000FF007D
:101A560047FFF0001FFFC000000000000000FF006D
:101A660047FFF0001FFFC000000000000000FF005D
:101A760047FFF0001FFFC000000000000000FF004D
:101A86006FFFF0001FFFC000000000000000FF0015
:101A96003FFFF8001FFFC000000000000000FF002D
:101AA6003FFFFC001FFFC0000000000000007F0099
:101AB6007FFFFE001FFFC0000000000000003F8007
:101AC6007E007F003FFFC0000000000000000FFF07
:101AD600FC003F807FC78000000000000001CFFFB0
:101AE600FC001FC0FF8700000000000000022FFF5F
:101AF600FE000FFFFF0600000000000000022FFF9F
:101B0600FF0007FFFE0C00000000000000022FFF90
:101B1600FF8007FFFE1800000000000000022FFFF4
:101B2600FFFFFFFFFE3000000000000000022FFF55
:101B3600FFFFFFFFFFE000000000000000022FFF94
:101B4600FFFFFFFFFF800000000000000001CFFF45
:101B5600C000007FFE0000000000000000000FFF34
:101B6600C000007FFE00000000000000000007FF2C
:101B76008000003FFC0000000000000000000000A4
:101B8600000000000000000000000000000000004F
:101B9600000000000000000000000000000000003F
:0A1BA6000000000000000000000035
:00000001FF
